:020000040800F2
:1000000090C60220650400084D3C00087B3A0008B9
:10001000493C0008AB200008915600080000000091
:10002000000000000000000000000000A503000820
:1000300021230008000000000104000865480008B2
:100040007F0400087F0400087F0400087F04000884
:100050007F0400087F0400087F0400087F04000874
:100060007F0400087F0400087F0400087F04000864
:100070007F0400087F0400087F0400087F04000854
:100080007F0400087F0400087F0400087F04000844
:100090007F0400087F0400087F0400087F04000834
:1000A0007F0400087F0400087F0400087F04000824
:1000B0007F0400087F0400087F0400087F04000814
:1000C0007F0400087F0400087F0400087F04000804
:1000D0007F040008A14F00087F0400087F04000887
:1000E0007F0400087F0400087F0400087F040008E4
:1000F0007F0400087F0400087F0400087F040008D4
:100100007F0400087F0400087F0400087F040008C3
:100110009D5000087F0400087F0400087F04000849
:100120007F0400087F0400087F0400087F040008A3
:100130007F0400087F040008000000007F0400081E
:100140007F0400087F0400087F0400087F04000883
:100150007F0400087F0400087F0400087F04000873
:100160007F0400087F040008294C0008314D000876
:100170007F0400087F0400087F0400087F04000853
:100180007F040008000000007F0400087F040008CE
:100190007F0400087F0400087F040008512D000838
:1001A0007F0400087F040008000000000000000039
:1001B000000000000000000000000000000000003F
:1001C0000000000000000000000000007F040008A4
:1001D0007F0400087F0400087F0400087F040008F3
:1001E0007F0400087F0400087F0400087F040008E3
:1001F0007F0400087F0400087F0400087F040008D3
:100200007F0400087F0400087F0400087F040008C2
:100210007F0400087F04000800F002F800F0B2F844
:100220000AA090E8000C82448344AAF10107DA4551
:1002300001D100F0A7F8AFF2090EBAE80F0013F0F1
:10024000010F18BFFB1A43F001031847EC8E0100A1
:100250000C8F01000A444FF0000C10F8013B13F022
:10026000070408BF10F8014B1D1108BF10F8015B0F
:10027000641E05D010F8016B641E01F8016BF9D102
:1002800013F0080F1EBF10F8014BAD1C0C1B09D159
:100290006D1E58BF01F801CBFAD505E014F8016BCB
:1002A00001F8016B6D1EF9D59142D6D3704700005D
:1002B0000023002400250026103A28BF78C1FBD86F
:1002C000520728BF30C148BF0B6070476E2900F04D
:1002D0001D84702900F07D85662918F03C8365290E
:1002E00018F03983672918F03683612918F03583AF
:1002F00003681B0A28BF41F08001692900F0CA8306
:10030000642900F0C783752900F0C4836F2900F0C9
:100310000A85782900F04985E92900F0A584E429B7
:1003200000F0A284F52900F09F84EF2900F00785F2
:10033000F82900F048850368DB0928BF41F08001F7
:10034000632900F02684732900F02B84E32901F04F
:100350008581F32901F08A81002070471FB518F0CC
:10036000F5FA00F059FB04000020002118F0C2FA51
:10037000401C60600020002118F0D2FAE0601FBD30
:1003800010B510BD01F0D6F91146FFF7E7FF0BF0ED
:10039000D5FF01F0A7FA03B4FFF7F2FF03BC01F0A9
:1003A000ABFA00002C4B19680868B0E8F04F80F3F6
:1003B0000988BFF36F8F4FF0000080F311887047FA
:1003C0000000000008480068006880F308884FF0CB
:1003D000000080F3148862B661B6BFF34F8FBFF39D
:1003E0006F8F00DF00BF00BF08ED00E0DFF80C00FA
:1003F000016841F470010160704700BF88ED00E0C2
:10040000EFF30980BFF36F8F134B1A681EF0100FC4
:1004100008BF20ED108A20E9F04F106009B44FF0BA
:10042000500080F31188BFF34F8FBFF36F8F17F029
:1004300081F94FF0000080F3118809BC1968086841
:10044000B0E8F04F1EF0100F08BFB0EC108A80F338
:100450000988BFF36F8F70471C000020EFF3058001
:10046000704700000948804709480047FEE7FEE75B
:10047000FEE7FEE7FEE7FEE7FEE7FEE7FEE7FEE754
:1004800004480549054A064B704700009948000892
:100490001902000890B4022090C6022090B60220F3
:1004A00090B6022010B500F0B7FA001D10BD00BFD5
:1004B0004584010053EA020C00F069802DE9F04BFD
:1004C0004FF00006002B1FBFB3FA83F503FA05F4C3
:1004D00024FA05F65E4012BF1643B2FA82F502FA1C
:1004E00005F4C5F120051EBF22FA05FC44EA0C0400
:1004F000203556EA044C4FEA144418BF641C4FF0F0
:1005000000084FF00009904271EB030C39D3002929
:1005100019BFB1FA81F701FA07F6B0FA80F700FACD
:1005200007F6C7F120071EBF20FA07FC46EA0C06B3
:100530002037B6FBF4FCA7EB0507103F07F01F0BB5
:10054000CBF120060CFA0BFB2CFA06F644BFB3469F
:100550000026202FA4BF5E464FF0000B5BEA060C7E
:1005600008BF4FF0010B19EB0B09ABFB027C48EB0A
:100570000608C01B06FB02CC0BFB03CC71EB0C0185
:10058000C1E70B46024641464846BDE8F08B13B52D
:100590004FF000004FF00001AFF30080BDE81C40B9
:1005A000704700007CB51D4616460C00009001D037
:1005B0002044401E074B7B442A4669460190304642
:1005C00000F0BDFA05461CB10020694600F0CAFAE9
:1005D00028467CBDB50500000FB47CB50C0009AA07
:1005E000009001D02044401E084B7B446946019096
:1005F000089800F0A4FA05461CB10020694600F0F6
:10060000B1FA28467CBC5DF814FB000081050000AF
:1006100070B50C460546012A05D02878800600D51D
:10062000EA69002302E0012305E05B1C934202D249
:10063000E05C0028F9D1A869E618C01AA861286A08
:1006400018442862284600F0EBF904E0D5E90121BE
:1006500014F8010B9047B442F8D3284600F0F6F99D
:1006600070BD00002DE9F05F894604464FF0000A96
:10067000DFF874B1FB44C0F820A02046E168884749
:10068000002874D0252806D0D4E901219047206A9B
:10069000401C2062F1E700265F462046E16888475B
:1006A0002028054607DB312D05D2781910F8200CDB
:1006B00008B10643F1E7B00701D526F00406C4F8F7
:1006C0001CA00027C4F818A02A2D09D0284604F041
:1006D000F9FF38B304EB8708303DC8F8185019E02B
:1006E00059F8041B204604EB87029161E1688847B2
:1006F000012F054618D1E069002820DA26F02006EF
:100700001DE0D8F8180000EB800005EB4000303801
:10071000C8F818002046E1688847054604F0D2FF73
:100720000028EED1012F0AD02E2D08D12046E168F5
:1007300088477F1C0546022F46F02006C4DBA069CF
:10074000002803DA404246F00106A061F00701D01C
:1007500026F010066C2D0BD0682D09D04C2D39D009
:100760006A2D35D0742D35D07A2D33D016E038E08F
:10077000E1682F4620468847B842054609D16C2FCC
:1007800026D04FF48060E16806432046884705463E
:1007900004E06C2F1AD04FF4807006430DB3A5F11E
:1007A0004100192802D8203546F400664A462946F9
:1007B000204626604E46FFF789FD80B101280BD008
:1007C000F61D26F0070000F1080956E74020E4E78F
:1007D0008020D8E70020D6E706F104094DE7284637
:1007E00052E7206ABDE8F09F6C87010040EA0103F0
:1007F00010B59B070FD1042A0DD310C808C9121FCA
:100800009C42F8D020BA19BA884201D9012010BD03
:100810004FF0FF3010BD1AB1D30703D0521C07E0D0
:10082000002010BD10F8013B11F8014B1B1B07D134
:1008300010F8013B11F8014B1B1B01D1921EF1D1A5
:10084000184610BD10B5431C02E010F8011B71B131
:100850008107FAD14FF0013202C88C1A8C4314EA96
:10086000C211F9D0C01A0A0603D0C01E10BDC01AAA
:1008700010BD0A0401D0801E10BD0902FCD0401E2C
:1008800010BD032A40F2308010F0030C00F01580F8
:1008900011F8013BBCF1020F624498BF11F801CB83
:1008A00000F8013B38BF11F8013BA2F1040298BFE8
:1008B00000F801CB38BF00F8013B11F0030300F052
:1008C0002580083AC0F0088051F8043B083A51F8F6
:1008D00004CBA0E80810F5E7121D5CBF51F8043BFB
:1008E00040F8043BAFF30080D20724BF11F8013B6E
:1008F00011F801CB48BF11F8012B24BF00F8013BD0
:1009000000F801CB48BF00F8012B704710B5203A22
:10091000C0F00B80B1E81850203AA0E81850B1E8B8
:100920001850A0E81850BFF4F5AF5FEA027C24BF6E
:10093000B1E81850A0E8185044BF18C918C0BDE865
:1009400010405FEA827C24BF51F8043B40F8043B2E
:1009500008BF7047D20728BF31F8023B48BF11F8E3
:10096000012B28BF20F8023B48BF00F8012B70473D
:1009700002F0FF0343EA032242EA024200F002B817
:100980004FF000020429C0F0128010F0030C00F0B8
:100990001B80CCF1040CBCF1020F18BF00F8012B36
:1009A000A8BF20F8022BA1EB0C0100F00DB85FEA04
:1009B000C17C24BF00F8012B00F8012B48BF00F8D0
:1009C000012B70474FF0000200B51346944696463F
:1009D000203922BFA0E80C50A0E80C50B1F1200152
:1009E000BFF4F7AF090728BFA0E80C5048BF0CC000
:1009F0005DF804EB890028BF40F8042B08BF70475E
:100A000048BF20F8022B11F0804F18BF00F8012BCF
:100A100070477047704770470048704750B40220D5
:100A200070B5044685690068C10601D5302600E02E
:100A30002026C00707D070BDD4E901213046904779
:100A4000206A401C20626D1EF6D570BD70B504464C
:100A500085690078C00707D170BDD4E90121202045
:100A60009047206A401C20626D1EF6D570BD096853
:100A70004A0501D540B27047C905FCD500B27047A0
:100A800009684A0501D5C0B27047C905FCD580B2D6
:100A9000704700002DE9F0410646002410687529D2
:100AA000314616A510D0FFF7E2FF002802DA4042D7
:100AB00013A507E031688A0701D512A502E04907AE
:100AC00004D511A5012401E0FFF7DAFF00210A2275
:100AD00006F1240709E0B0FBF2FCB0FBF2F302FBE5
:100AE0001C00303078541846491C0028F3D12346A6
:100AF0002A463046BDE8F04100F0BFB900000000D2
:100B00002D0000002B00000020000000116802688A
:100B1000006A530501D508700AE0D30501D50880A5
:100B200006E0130603D5C217C1E9000200E0086021
:100B30000120704701694A1C02610878704700B5BE
:100B40008FB0CDE901310021059105497944CDE906
:100B5000031011466846FFF785FD0FB000BD000089
:100B6000E5FFFFFF0A6802F8010B0A607047D1E950
:100B700000239A4202D2531C0B601070704710B5CC
:100B8000436913B1AFF3008001E0FFF741FD01209D
:100B900010BD127800F124010A7000224A7001226F
:100BA000EDE711684FF0FF32E9E700002DE9FF5F44
:100BB00015468A460446DFF8AC80F8440027D8E999
:100BC00000103E46CDE9001010E03AF816106A46D3
:100BD00002A800F04FFD411C07D02178890603D5FB
:100BE000E269391891420DD80744761C20788006B6
:100BF00002D5E069B84205DDAE42E6DB3AF8160000
:100C00000028E2D1A069C01BA0612046FFF708FFC1
:100C1000D8E90010CDE90010002017E03AF81810CC
:100C20006A4602A800F026FDB0F1FF3F81460BD0D6
:100C300000250DF1080B05E0D4E901211BF80500A2
:100C400090476D1C4D45F7D308F10100B042804636
:100C5000E4DB206A384420622046FFF7F7FEBDE857
:100C6000FF9F00003A8201002DE9F0418046D21D2D
:100C700022F007020025D2E90002F52915A614D0BA
:100C8000011E72F1000106DA0023D0EB030063EBD2
:100C9000020211A608E0D8F800108B0701D50FA6B4
:100CA00002E0490701D50EA601251146002408F1EE
:100CB000240704E000F09CF830323A55641C50EAF6
:100CC0000102F7D12B46324621464046BDE8F041AD
:100CD00000F0D3B8000000002D0000002B00000041
:100CE0002000000030B4002100F1240408E002F0EC
:100CF0000705D208303542EA4372DB086554491CC7
:100D000052EA0305F3D10468002310A2250707D592
:100D1000A40600D421B1C46901230DA2641EC461DC
:100D200030BC00F0AAB810B5044621461068FFF7A1
:100D3000A7FE02462046BDE810400023D2E7D21DA0
:100D400022F00701D1E90023CCE7000000000000F9
:100D500030000000F0B40D460188090502D5214C91
:100D60007C4402E01F4C7C440E34002100F1240638
:100D700008E002F00F071209E75D42EA03721B095F
:100D80007754491C52EA0307F3D102780023120773
:100D900004D5702D06D009B1022311342246F0BCCF
:100DA00000F06BB801231034F8E770B504460D4627
:100DB00021461068FFF764FE024629462046BDE83A
:100DC00070400023C6E7D21D22F00703D3E90023B9
:100DD000C0E70368126843F0200303600823C3617F
:100DE0000023B7E79C8001000048704730B4022020
:100DF00030B5B0F10A024FEA900E71F100034EEAED
:100E0000817EB0EB0E0061EB91014FEA101E4EEABD
:100E1000017E10EB0E0041EB11114FEA102E4EEA4D
:100E2000016E10EB0E0041EB11214FEA104E4EEA1D
:100E3000014E10EB0E0041EB1141401841F1000151
:100E40004FEAD00040EA41704FEAD10110EB800533
:100E50004FEA810444EA907444EB01046D1944EBB9
:100E60000404521BA3414FF0000348BF0A3200D5CF
:100E700030BD401C41F1000130BD2DE9F0470D4669
:100E800099469246044600F124080168880604D574
:100E9000E06921F01001216000E00120A84201DD9D
:100EA000471B00E00027A1697A1902EB0900081A24
:100EB000A0612078C00602D42046FFF7B1FD0026CD
:100EC00008E0D4E901211AF806009047206A401C86
:100ED000761C20624E45F4DB2078C0060AD52046F9
:100EE000FFF79EFD06E0D4E9012130209047206AFB
:100EF000401C2062381EA7F10107F4DC07E0D4E9AA
:100F0000012118F805009047206A401C2062281E25
:100F1000A5F10105F3DC2046FFF798FD20780006D7
:100F200002D50220BDE8F0870120FBE770472DE9DC
:100F3000FF4F0C461E464FF0FF378BB0D2E9000141
:100F4000DDF860800A908A46C1F30A5505B93D462E
:100F5000002108464FF00000BAF1000F00F44000F5
:100F600005DA00EB80004FF4400101EA50004FEA3F
:100F70009059B9F1010F00DDB9460A9850EA4A00CC
:100F80000ED044F61050A5F2FF3545432F14B8F1AA
:100F9000000F1ED07542291E1EDDC9F100021CE0A3
:100FA000B8F1010F4FF0000001D0302103E0F2430F
:100FB00005E02154401CB042FBDB304600220021FA
:100FC00021540B99C1F80880C1E900200FB0BDE899
:100FD000F08FBD1B6D1CDEE74A4600DA694206A8A9
:100FE00000F00EFC06AB93E8070003AB83E80700B4
:100FF00050460A9900F087FC8DE80700A0F50050E4
:101000001F3800900398002D0ADD42F21F014A4666
:101010000844002303A90390684600F0F0FE09E0AD
:10102000A0F500504A461F38002303A903906846E4
:1010300000F0FAFE8DE807000004000C03D04FF02A
:10104000FF30410800E01046B8F1000F03D0002245
:10105000009215461EE0751E05D4FFF7C9FE30321A
:1010600062556D1EF9D5B3460122084302D0002215
:101070007F1C04E02078302801D100227F1E002A46
:10108000099784D01DE0112D07DAFFF7B1FE303249
:1010900062556D1C50EA0102F5D1084302D0009858
:1010A000C8B10EE00021681E05E0235C625C635459
:1010B0002254401E491C8142F7DBAB46A81B401E50
:1010C0000990002004F80B000B98099AC0F80880DA
:1010D000C0E9002B7AE711264FF0000857E72DE909
:1010E000F04F88460446D21D22F0070191B0D1E9A5
:1010F0000001CDE90A0104F0CDFA02460B98C00FB9
:1011000001D02D2007E02068810701D52B2002E0C7
:10111000202101EAC000032A099001D0072A05DB3B
:1011200003464146204600F02BFB0BE12078800669
:1011300001D5E06900E00620B8F1650F814606D0D0
:10114000B8F1660F18D0B8F1670F70D131E0002008
:10115000B9F1110F009001DB112301E009F1010346
:101160000AAA01A90CA8FFF7E2FEDDE90C7000262F
:1011700009F10105834647E001204B4600904FF0FE
:1011800000470AAA01A90CA8FFF7D1FEDDE90DB0BE
:101190000C995D46002610B909F101000D18B9EB54
:1011A000050003D4C0F1FF3609F10105A5EB0900E4
:1011B0002BE0B9F1010F01DA4FF001090020B9F17C
:1011C000110F0090484601DD112300E003460AAAF2
:1011D00001A90CA8FFF7ABFEDDE90C704D46002617
:1011E0008346207800070AD4AB4500DA5D4601A8A3
:1011F000012D04DD411911F8011C302907D04F459C
:1012000002DA17F1040F04DA012082460FE06D1EA6
:10121000EEE7002F02DCED1B3E4403E0781CA84201
:1012200000DD7D1CB81B00F1010A4FF0004720785B
:10123000000703D4AA4501DB4FF0FF3A0021B7F1C4
:10124000004F0DF143088DF8431024D002202B23CA
:10125000002F01DA7F422D230A21021EA0F1010096
:1012600000DC5FB197FBF1FC97FBF1F201FB1C7C0A
:1012700017460CF1300C08F801CDEEE7A8F101009B
:1012800003702188090501D5452100E06521A0F101
:10129000010800F8011C09980FA9A1EB0807FF1D20
:1012A00000B10120411901EBEA70A1693844081A24
:1012B000401EA0612078C00602D42046FFF7B0FB94
:1012C000099828B1D4E901219047206A401C206286
:1012D0002078C00622D52046FFF7A2FB1EE0002E94
:1012E00004DBB34502DD01A8805D00E03020D4E9D5
:1012F00001219047206A401C2062761CAAF101005F
:101300005FEA000A0AD1FFF787FBC0680168405C0A
:10131000D4E901219047206A401C2062281EA5F1D3
:101320000105DCDC07E0D4E9012118F8010B904746
:10133000206A401C2062381EA7F10107F3DC20461A
:10134000FFF784FB032011B041E600002DE9F04FC8
:1013500004460D46D21D22F0070089B0D0E900975F
:101360004846394604F096F90246F80F01D02D237D
:1013700007E02068810701D52B2302E0202101EA44
:10138000C0038DF820300BB1012000E00020032ABB
:10139000824601D0072A04DB2946204600F0F0F9F6
:1013A0003FE12078800601D40D2500E0E569C7F310
:1013B0000A560D2D49DA00214FEA175B08464FF017
:1013C0000000002F00F4400007DA00EB80004FF42B
:1013D000400100EBD07001EA60008115012901DDB8
:1013E0004FF0FF3100224FEA850CBCF1180F06D3F5
:1013F0001346ACF118004FF08052C24003E04FF4A6
:10140000801323FA0CF30CF10C0CBCF1200F04D365
:10141000ACF1200C09FA0CF001E007FA0CF00029FD
:101420004FF0004801DD18B90FE00ED140450CD354
:1014300019EB02095F4121B9404502D19F4329EAD6
:101440000209BBEB175F00D0761C2088000502D58F
:101450007B48784402E07A487844193808AA302357
:1014600002F80A30037C0AF10101002E0AF1020A97
:1014700053546A4602DC4FF0300101E04FF0310175
:101480004FF001088DF8001002D0A6F2FF3603E0FD
:1014900059EA470100D06B4E002D02DC2178090784
:1014A00004D54FF002082E218DF80110C44600210A
:1014B0000BE0C7F303433F01C35C491C6D1E02F8F8
:1014C0000830052908F1010801DA002DF1DC0021BE
:1014D0000CE000EB1973491C1B786D1E082902F8FB
:1014E00008304FEA091908F1010801DA002DF0DC93
:1014F00021688B0602D516E0A8F10108E04505DD5C
:1015000002EB080313F8013C302BF5D0B8F1000FC3
:1015100009DD02EB080313F8013C2E2B03D1090768
:1015200001D4A8F10108002D05DD3E2102F80810C4
:101530006D1E08F10108407C002E02F8080008F139
:10154000010804DA2D20764202F8080002E02B2080
:1015500002F808000A214FF47A70864208F1010867
:101560000BDB96FBF0F3303302F8083096FBF0F318
:1015700008F1010800FB136601E0642E0CDB642017
:1015800096FBF0F3303302F8083096FBF0F308F1E5
:10159000010800FB136601E00A2E06DB96FBF1F062
:1015A000303002F8080008F1010896FBF1F001FB69
:1015B0001060303002F80800A16908F1010808EB5A
:1015C000050202EB0A00081AA0612078C00602D4C6
:1015D0002046FFF725FA216A08AE01EB0A002062D7
:1015E00004E0D4E9012116F8010B9047BAF1010A91
:1015F000F7D22078C00602D52046FFF711FA6E46D2
:1016000009E016F8010B3E280FD0D4E901219047DC
:10161000206A401C2062B8F10108F2D22046FFF790
:1016200015FA09B00320BDE8F08F206A2844206233
:1016300003E0D4E90121302090476D1EEBD3F8E799
:10164000E579010002FCFFFF10B5436913B1AFF368
:10165000008001E0FFF7AAFA012010BD128800F116
:10166000240182840022C2840122EDE711684FF038
:10167000FF32E9E770B516460C460546FEF712FF45
:10168000036893F80101012806D0FF2C0FD8185DDC
:1016900068B101202C7070BDD3F807013246214695
:1016A00003F2071303442846BDE8704018474FF083
:1016B000FF3070BD4FF0013C50F8042B51F8043B53
:1016C0009A4221D1A2EB0C03934313EACC1317D116
:1016D00050F8042B51F8043B9A4215D1A2EB0C03AD
:1016E000934313EACC130BD150F8042B51F8043B6D
:1016F0009A4209D1A2EB0C03934313EACC13DBD03B
:101700004FF00000704700BFD01A01BAB1FA81F162
:1017100001F0180122FA01F0CB40C1F12001DBB247
:10172000C0B2C01A2CFA01F3D11A914311EAC311C5
:10173000E6D170477546FFF757FBAE460500694690
:10174000534620F00700854618B020B5FEF798FEF6
:10175000BDE820404FF000064FF000074FF00008B2
:101760004FF0000B21F00701AC46ACE8C009ACE833
:10177000C009ACE8C009ACE8C0098D46704700005C
:101780002DE9F0411F46044603260168072A01F4AB
:10179000006004DB08B116A505E016A503E008B15A
:1017A00015A500E015A521F010002060A069C01E5D
:1017B000A0610FB1401EA0612046FFF731F94FB183
:1017C000D4E9012138469047206A401C2062C01CA1
:1017D000206206E0206AFAE7D4E9012115F8010B3E
:1017E0009047761EF8D22046FFF730F9BDE8F08129
:1017F0004E414E006E616E00494E4600696E6600B5
:101800002DE9F047814616468AB0354878440DC820
:101810008DE80D0032487844801C03AC0DC884E884
:101820000D0041F69B300844372190FBF1F290FB0C
:10183000F1F5A5F1800501FB12041B3C02D56442C1
:10184000012000E00020DFF898A080460027FA443D
:10185000AAF1BE0A0EE0E0070AD03246684607EB5E
:10186000470101230AEB810100F0DEFA8DE8070051
:1018700064107F1C002CEED1194F7F44AE3F19E05D
:10188000E80715D007EB04100DF1180A90E80E00D8
:101890008AE80E00C068F04201D1981908903246DB
:1018A000012306A903A800F0BFFA03AB83E80700F1
:1018B0006D10641C002DE3D14FF0010332466946E0
:1018C000B8F1000F03A802D000F099FA01E000F08F
:1018D000ABFAC9E90001C9F808200AB0BDE8F087F1
:1018E000BC76010010B50446AFF300802046BDE889
:1018F0001040FEF750BD000001491820ABBEFEE7C6
:101900002600020070475FEA400C08BF91F0000F0C
:101910004FEA8C234FEAC12243EA51514FEA1C504F
:1019200018BF00F5F0404FEA300018BF41F0004109
:101930005FEA6C5C00F02980BCF1FF3F08BF40F01B
:1019400080407047130C06BF12044FF0100C4FF08C
:10195000000C130E04BF12020CF1080C130F04BF8D
:1019600012010CF1040C930F04BF92000CF1020C55
:10197000D30F04BF52000CF1010C11464FF00002CE
:10198000A0F11F00A0EB0C00704711F0004F08BF42
:10199000704731F000413FF4D5AF0B0C06BF09048E
:1019A0004FF0100C4FF0000C0B0E04BF09020CF1AD
:1019B000080C0B0F04BF09010CF1040C8B0F04BFC2
:1019C00089000CF1020CCB0F04BF49000CF1010C93
:1019D000CCF12003A0EB0C0022FA03F302FA0CF284
:1019E00041EA030100F10100704720F07F4C80EADA
:1019F000030023F07F47ACEB070303F57C5300F0B3
:101A0000004003F1FF032DE980494FEA154B09B46B
:101A10004FEA144325EA0B4E24EA03480FF204264A
:101A200006EB132749083E785FEA320203FB06679C
:101A3000C7F5000707FB06F64FEA54374FEAD646CC
:101A400006F1020607FB066CCCF1005C4FEA1C476E
:101A50002CEA074C07FB06F40CFB06F504EB1546D5
:101A60004FEA961634BF00204FF000404FEAD137BE
:101A700006FB07FC4FEA1C4C0CFB0BF7D21B03FBCD
:101A80000CF761EB07010CFB0EF7B0EB074072EBB4
:101A900017420CFB08F734BFA2EB0742B2EB074238
:101AA00061EB17414FEA0C444FEA910706FB07FC34
:101AB0004FEA1C4C0CFB0BF7B0EBC74072EB5732F4
:101AC00003FB0CF734BFA2EBC742B2EBC74261EB9A
:101AD00057310CFB0EF7B0EBC70072EB57720CFBE3
:101AE00008F734BFA2EBC702B2EBC70261EB577134
:101AF000039F4FEA816141EA921104EBCC044FEA63
:101B0000D1374FEA826206FB07FC42EA90124FEAA5
:101B100080604FEA1C4C0CFB0BF7D21B03FB0CF74D
:101B200061EB07010CFB0EF7B0EB074072EB1742BD
:101B30000CFB08F734BFA2EB0742B2EB074261EBA4
:101B400017414FEA8C554FEA910704EB9C2406FBA2
:101B500007FC4FEA1C4C0CFB0BF7B0EBC74072EBD9
:101B6000573203FB0CF734BFA2EBC742B2EBC742BC
:101B700061EB57310CFB0EF7B0EBC70072EB5772FD
:101B80000CFB08F734BFA2EBC702B2EBC70261EB54
:101B9000577115EB4C254FEA816141EA92114FEAEA
:101BA00082624FEAD13742EA901206FB07FC44F109
:101BB00000044FEA80604FEA1C4C0CFB0BF7D21B71
:101BC00003FB0CF761EB07010CFB0EF7B0EB0740D2
:101BD00072EB17420CFB08F734BFA2EB0742B2EBE3
:101BE000074261EB174115EB1C154FEA813141EAC1
:101BF00092414FEA823242EA90424FEA80304FEA05
:101C00000C7644F1000448EA03434EEA0B484FF0D7
:101C1000000EB2EB080C71EB030724BF6246394695
:101C20004EEB0E0E4FF0000B0018524149414BEBAA
:101C30000B0BB2EB080C71EB03077BF1000B24BF1D
:101C4000624639464EEB0E0E4FF0000B0018524123
:101C500049414BEB0B0BB2EB080C71EB03077BF12B
:101C6000000B24BF624639464EEB0E0E51EA0207C6
:101C700018BF46F0010616EB0E7655F1000254F13E
:101C8000000103D5BDE88901BDE80088BDE88901F0
:101C9000BDE80048B619524141EB0101A3F101032F
:101CA000704780807F7E7D7C7B7A797877767675C9
:101CB0007473727171706F6E6E6D6C6C6B6A6A6941
:101CC0006868676666656464636362616160605FDB
:101CD0005F5E5E5D5D5C5C5B5B5A5A595958585754
:101CE00057565655555554545353525252515150BC
:101CF00050504F4F4F4E4E4D4D4D4C4C4C4B4B4B0F
:101D00004A4A4A4949494848484747474746464654
:101D1000454545444444444343434342424242418F
:101D20004141002B9C4630D477002BD01CB54FEAA4
:101D3000370703B44FF010004FF01001BAF1000F55
:101D400006D0BCF1000FDCBF40F0080040F00801F5
:101D50004FF000000FBCBDE810400BF1010BBBF1D0
:101D6000010F08BF5FEA170722BF12F1010211F14C
:101D700001014FF0004143F1000300F0004043EA4D
:101D800000007047F9D35708D0E746EA064613F13A
:101D9000400F4FEA16461FDD13F1200FDFBF164339
:101DA0000A46002120335B42BED0C3F1200746EA39
:101DB000064602FA07F74FEA164646EA0706C3F157
:101DC000200722FA03F201FA07F721FA03F14FF094
:101DD000000342EA0702A7E746EA020646EA064689
:101DE0004FEA164646EA0106BCBF46EA0646360CEE
:101DF0004FF000034FF000024FF0000194E72DE98F
:101E0000804C9A46934670B491E8380007C831EA8E
:101E1000400C48BF34EA430C03D5FFF7E6FDFFF75B
:101E200080FFF0BCBDE8008C2DE9804C9A469346BB
:101E300070B491E8380007C810F0804F08BF13F065
:101E4000804F03D100F005F8FFF76BFFF0BCBDE851
:101E5000008C20F07F4780EA030023F07F4C07EBE3
:101E60000C03A3F57C5300F00040A3F1FE0392F0B5
:101E7000000F00F0B38095F0000F00F077802DE99F
:101E800001494FEA11404FEA144621EA004800FB9D
:101E900006FC24EA064708FB06F607FB08F800FBE9
:101EA00007F718EB06484CEB164C4FEA124B18EBB1
:101EB00007484FEA15464CEB174022EA0B4E0BFB46
:101EC00006FC25EA06470EFB06F607FB0EFE0BFB9B
:101ED00007F71EEB064E4CEB164C4FF000061EEBC0
:101EE000074E4CEB174B18EB0B0840F1000018EBBA
:101EF0000E0B58EB000840F100008F1A4FF0000164
:101F00003CBFC943661B14BFB5EB040C00213CBFAA
:101F1000C943F61B4FEA17444EEA8E0E27EA0445E2
:101F20004FEA1C4704FB07622CEA074C05FB07F746
:101F30000CFB05F604FB0CFC16EB074642EB1742C4
:101F400016EB0C4642EB1C421BEB060658EB02025A
:101F5000414146EA9E0601D5BDE80189B6195241C4
:101F600041EB0101A3F10103BDE801894FEA1445EA
:101F70004FEA114724EA054621EA074C05FB07F41E
:101F800006FB07F70CFB06F105FB0CFC11EB074108
:101F900044EB17444FEA124711EB0C4144EB1C444D
:101FA00022EA074C05FB07F206FB07F70CFB06F6D7
:101FB00005FB0CFC16EB074642EB174216EB0C46F2
:101FC00042EB1C456A1854F1000148BF7047B6192E
:101FD000524141EB0101A3F10103704795F0000F5D
:101FE00037D04FEA11424FEA144721EA024624EA69
:101FF000074C02FB07F106FB07F70CFB06F402FB9C
:102000000CFC14EB074441EB17414FEA154714EB66
:102010000C4441EB1C4125EA074C02FB07F506FB8B
:1020200007F70CFB06F602FB0CFC16EB074645EB2C
:10203000174516EB0C4645EB1C42121951F10001F5
:1020400048BF7047B619524141EB0101A3F10103AA
:1020500070474FEA14454FEA114724EA054621EA42
:10206000074C05FB07F106FB07F70CFB06F24FF0E8
:10207000000605FB0CFC12EB074241EB174112EB8B
:102080000C4251EB1C4148BF7047921841EB0101D3
:10209000A3F10103704707E00321022001F0F0FCE7
:1020A0004FF4FA7015F0C0F8F6E700BFFEE7000045
:1020B000016821F00101016000210160016181607E
:1020C00041606749884208D16549A031096841F0FB
:1020D0000F010246C2F8A010C0E0614914318842E5
:1020E00008D15F49A031096841F0F0015C4AC2F8AB
:1020F000A010B3E05A492831884208D15849A0318C
:10210000096841F47061564AC2F8A010A6E054492B
:102110003C31884208D15249A031096841F47041EC
:102120004F4AC2F8A01099E04D495031884208D179
:102130004B49A031096841F47021494AC2F8A01006
:102140008CE047496431884208D14549A03109688B
:1021500041F47001424AC2F8A0107FE04049783152
:10216000884208D13E49A031096841F070613C4A7B
:10217000C2F8A01072E03A498C31884208D138493F
:10218000A031096841F07041354AC2F8A01065E0FD
:102190003449884208D13349A031096841F00F0120
:1021A000304AA032116059E02E491431884208D1DA
:1021B0002C49A031096841F0F0012A4AA03211608F
:1021C0004CE028492831884208D12649A0310968C5
:1021D00041F47061234AA03211603FE021493C3153
:1021E000884208D11F49A031096841F470411D4A55
:1021F000A032116032E01B495031884208D11949A0
:10220000A031096841F47021164AA032116025E01E
:1022100014496431884208D11249A031096841F457
:102220007001104AA032116018E00E4978318842DE
:1022300008D10C49A031096841F07061094AA03207
:1022400011600BE007498C31884207D10549A03164
:10225000096841F07041034AA032116070470000E4
:10226000000002400004024021B1026842F0010275
:10227000026003E0026822F001020260704701463A
:10228000086980B27047000010B50268144B1A400C
:102290000C6A8B6823430C6923434C6923438C6984
:1022A0002343CC6923434C6A23438C6A23430C6B3E
:1022B00023434C6B23431A430260CB6803610B68D2
:1022C00083604B684360074B984203D2064CCB6A4D
:1022D000236003E0034CA834CB6A236010BD0000E8
:1022E0000F00F8FF00040240A80002400AB1C860D5
:1022F00001E00023CB60704701617047002101605D
:1023000041608160C160016141618161C1610162BF
:10231000416281620121C162002101634163704712
:10232000704710B5044621465F2001F093FD214619
:10233000012001F0FFFD21464FF4806001F09AFD7D
:1023400010BD000010B586B00446684601F070FB71
:102350000220009001900B20059069466E4801F024
:1023600017FB042000900120059069466B4801F09E
:102370000FFB207800287CD1802000900F20059052
:102380006946674801F004FB042000900B2005908B
:102390006946614801F0FCFA082000900020019095
:1023A0000B20059069465C4801F0F2FA012000908C
:1023B00005906946594801F0EBFA0220009001208F
:1023C00005906946554801F0E3FA08200090012085
:1023D00005906946514801F0DBFA802000900A2000
:1023E000059069464D4801F0D3FA102000900B206B
:1023F00005906946484801F0CBFA202000900B2058
:1024000005906946444801F0C3FA01200090059008
:102410006946434801F0BCFA022000900120059073
:1024200069463F4801F0B4FA4FF4806000900D20F7
:10243000059069463A4801F0ABFA4FF4006000900D
:1024400002200190012005906946354801F0A0FA6C
:102450004FF4805000900D2005906946304801F0FF
:1024600097FA4FF4005000900D20059069462C48D3
:1024700000E002E001F08CFA40E002200090002031
:102480000190072005906946244801F081FA4FF435
:1024900080700090092005906946224801F078FA82
:1024A0004FF4007000900920059069461D4801F026
:1024B0006FFA4FF480600090092005906946194832
:1024C00001F066FA4FF40060009002200190059040
:1024D0006946134801F05CFA4FF4805000900220E6
:1024E000059069460E4801F053FA4FF400500090F1
:1024F0000220059069460A4801F04AFAA07848B1DE
:1025000020200090022001900D200590694604488B
:1025100001F03EFA06B010BD00C8024000C0024003
:1025200000C4024000CC024010B510206C49087075
:1025300032204870542088707620C8708920087135
:10254000BA2048716C216748FEF73CFA00206549C3
:1025500048700871012008706148C8600020C87088
:10256000887061484861614808614FF4C0608861C3
:102570000020A1F8540000215A48A0F8561001216B
:10258000A0F858100021A0F85A104FF40041A0F80C
:102590005C10C910A0F860102021A0F8621004217E
:1025A000A0F864108901A0F866104901A0F868102D
:1025B0000120FFF7B6FE4B48FFF7C4FE494800F084
:1025C0009FF84B4800F00AFA4A4801F009F84FF426
:1025D0000050484908844000488480010863400056
:1025E0004863800148644FF4C36088644FF480708E
:1025F000C1F89400102081F8B000002081F8B100EB
:102600000120A1F8C2000003C1F8C400C001C1F854
:10261000D0008000C1F8D800C1F8E000314840780F
:1026200050BB0846008CB0F5005F0AD10846408CCC
:10263000B0F5804F05D14FF404512A48A0F85E1040
:1026400025E02C48008CB0F5005F08D12948408C6B
:1026500028B94FF480712348A0F85E1017E0254890
:10266000008C50B92348408CB0F5804F05D14FF411
:1026700000511C48A0F85E1009E01E48008C30B9DB
:102680001C48408C18B900211648A0F85E10194A61
:102690001449174800F090FB08B1002010BD002439
:1026A0000DE004EB4400144901EB402200232146D5
:1026B0000C4800F029FF08B10020EFE7641C042C4F
:1026C000EFD318210D48FEF77DF921200B49086052
:1026D0000020C8604FF4403008610120DEE70000B0
:1026E000AE0100202CB102206C980220CC98022070
:1026F0000050024098B102202C99022084B202209E
:102700003EB504464FF4407001F0DAFA57208DF8D8
:10271000080001208DF80B0005208DF8090000202D
:102720008DF80A0002A801F093FAE078D0B168466B
:1027300001F0DAF84FF00060009001208DF80600FB
:1027400004208DF804000C208DF80500684601F087
:102750007FF858208DF8080001208DF80A0002A8A3
:1027600001F076FA3EBDF0B505460E460021002286
:1027700006F130025369976952F82310906910B935
:102780004FF48070F0BDD06900B17F1C002424E0BC
:1027900008690860C86840F08070C860486928B15E
:1027A00048698860C86840F00070C860C86840F038
:1027B0000040C860106A18B1C86840F08040C86026
:1027C0009069401EA04207D900BF5B1C042B00D3B8
:1027D0001B1F00BF52F82310641CBC42D8D341F227
:1027E000281041510020906100BFCBE74FF48B527D
:1027F00012580A434FF48B531A507047D0F80022F6
:1028000022F470620A43C0F80022704710B588B005
:10281000044601A801F09EFB3F49029888420CD370
:102820003E490298884208D2D4F8000220F4706031
:1028300040F40070C4F800026BE038490298884206
:102840000CD337490298884208D2D4F8000220F409
:10285000706040F44070C4F800025AE030490298B9
:1028600088420AD32F490298884206D2D4F800023F
:1028700020F47060C4F800024BE02A4902988842B4
:102880000CD329490298884208D2D4F8000220F4D7
:10289000706040F48070C4F800023AE02249029867
:1028A00088420CD321490298884208D8D4F8000203
:1028B00020F4706040F48060C4F8000229E01B49F5
:1028C000029888420CD31A490298884208D2D4F858
:1028D000000220F4706040F4A060C4F8000218E028
:1028E0001349029888420CD312490298884208D8AA
:1028F000D4F8000220F4706040F4C060C4F8000214
:1029000007E0D4F8000220F4706040F4E060C4F8FE
:10291000000208B010BD0000002D3101C00E1602EB
:102920000087930300E1F50580D1F00880B2E60E40
:1029300000A3E1110065CD1D30B502460020002343
:1029400010E003EB43054C6904EBC5000024046070
:1029500044608460C4600461446101F1300444F85F
:1029600023005B1C042BECD300250D644D648D64A7
:102970000D65CD64032541F23014A55041F21C14BD
:102980004D69A5504C6904F5D86441F22815AC5046
:1029900030BD30B50246002000230EE003EB4305B6
:1029A0000C6904EBC5000024046044608460C460CA
:1029B00001F11C0444F823005B1C042BEED300251A
:1029C000CD62032541F22C14A55041F214140D6977
:1029D000A5504FF489540D69A55030BD10B504467B
:1029E0000348844202D1C00401F054FA10BD000033
:1029F000005002402DE9F84180460C4615466426F9
:102A00005C20035B5620025BB4F85410404600F093
:102A1000C5FE10B94020BDE8F88100BF84480068B9
:102A200000F0807078B900BF8148006840F0807085
:102A30007F49086000207F4948600846006840F0F0
:102A40000100086000BF7B484068064400BF794829
:102A50004068B042FBD300BF7548006820F080702A
:102A60007349086000BF00BF0846006800F080702E
:102A700070B900BF0846006840F080700860002010
:102A80006C4948600846006840F00100086000BFDB
:102A90006848476800BF5820025BB4F854106B4682
:102AA000404600F0D5FC08B92020B4E761484068F2
:102AB000C01BB0F5A04F09D900BF5D48006820F0E9
:102AC00080705B49086000BF0420A4E76420005BBD
:102AD000009908406421095B8842DCD160780028B5
:102AE00068D06020035B5620025BB4F85410404667
:102AF00000F054FE08B940208DE74D48006800F012
:102B0000807078B900BF4A48006840F0807048493A
:102B100008600020474948600846006840F001000E
:102B2000086000BF4348476800BF5820025BB4F804
:102B300054106B46404600F08BFC08B920206AE731
:102B40003C484068C01BB0F5A04F09D900BF3848C9
:102B5000006820F080703649086000BF04205AE702
:102B60006220005B009908406221095B8842DCD149
:102B70005A20025BB4F854106B46404600F068FCE3
:102B800008B9202047E76620005B0099084018B18B
:102B90004FF40050288401E0002028846820005B66
:102BA0000099084018B14FF48040688435E0002057
:102BB000688432E05E20035B5620025BB4F8541058
:102BC000404600F0EBFD08B9402024E700BF18485C
:102BD000006800F0807078B900BF1548006840F0C8
:102BE0008070134908600020124948600846006858
:102BF00040F00100086000BF0E484068064400BF76
:102C00000C484068B042FBD300BF0948006820F080
:102C100080700749086000BF00BF00BF044800681B
:102C200020F080700249086000BF0020F3E6000039
:102C3000FCED00E0001000E002464FF48B539B587F
:102C40000B400BB1012000E0002070472DE9F84F48
:102C500006468A460020009000240025002754469E
:102C600006F13007D7F8148057F8285014B902201D
:102C7000BDE8F88FB86950B9304600F045FA10B990
:102C80004FF40070F4E7D7F8148057F828504FF04D
:102C9000000B1CE028692060B0696060686920B1A1
:102CA000A46868692060B0696060E868C0F30E00DD
:102CB000009000BF08F10108B8F1040F01D3A8F19A
:102CC000040800BF57F82850A4680BF1010BB8693D
:102CD000401E5845DED8E868C0F30E010098A1EB0D
:102CE000000928692060B069484502D3C4F80490FF
:102CF0000DE0686948B1B0696060A46868692060E7
:102D0000B069A9EB0000606001E00220B0E700209C
:102D1000AEE7F0B506460027002506F130056C69E0
:102D2000A86930B9304600F0EFF910B94FF40070DF
:102D3000F0BD00BFA869401E0444042C00D3241F2A
:102D400000BF55F82470F868C0F30E00F0E70000EB
:102D500038B50020009000BF5021EFF3118081F3BF
:102D60001188BFF34F8FBFF36F8F00BF0446402120
:102D70000E48FFF761FF98B169460D48006815F0ED
:102D80002FF8009838B14FF080500A490860BFF31F
:102D90004F8FBFF36F8F48F240010448FFF726FDC5
:102DA00000BF84F3118800BF38BD0000005002400E
:102DB000B401002004ED00E02DE9F04705460E4681
:102DC000144606B114B90220BDE8F0870121084677
:102DD00001F0B0F8307830B9C248006820F0805077
:102DE000C049086005E0BF48006840F08050BD4918
:102DF00008604FF48050405940F001014FF480507A
:102E00004151B948006800F0807078B900BFB648F9
:102E1000006840F08070B44908600020B349486001
:102E20000846006840F00100086000BFAF48D0F8D5
:102E3000049010E0AD484068A0EB0900B0F5805F59
:102E400009D900BFA848006820F08070A649086032
:102E500000BF0420B8E74FF48050405900F0010053
:102E60000028E7D100BFA048006820F080709E498C
:102E7000086000BF307918B92846FFF7C7FC03E0A7
:102E80002846B168FFF7BAFC224631462846FFF7CC
:102E9000B1FD8046B8F1000F01D0404694E720789C
:102EA00061680843217A0843E168084321690843BF
:102EB00061690843A1690843E1690843218C08431B
:102EC000618C0843616A0843A16A0843E16A0843C8
:102ED000216B0843616B0843A16B0843E16B084316
:102EE000216C0843616C40EA01072868804908406A
:102EF00038432860D4E912010843216D0843616D0D
:102F00000843A16D0843E16D40EA0107686879490B
:102F1000084038436860D4E918010843A16E0843AB
:102F2000E16E0843216F0843616F084394F87810FD
:102F30000843E16F0843D4F880100843D4F88410A4
:102F40000843D4F888100843D4F88C1040EA0107ED
:102F5000A868694908403843A86094F89000D4F8FC
:102F6000941040EA0107E86840F20F1188433843A3
:102F7000E86094F89C10D4F898000843D4F8A010A6
:102F80000843D4F8A41040EA0107286F4FF60D71EA
:102F9000084038432867D4E92A0140EA0107D5F8F8
:102FA000900020F003003843C5F8900094F8B0700A
:102FB000D5F8000D20F072003843C5F8000D94F8E4
:102FC000B100D4F8B4100843D4F8B8100843D4F8CA
:102FD000BC1040EA0107D5F8300D20F07B003843E3
:102FE000C5F8300DB4F8C0704FF48050405947F622
:102FF0000201884338434FF480514851B4F8C2006D
:10300000D4F8C4100843D4F8C81040EA010741F2CC
:10301000040040594DF201018843384341F2040154
:103020004851D4E9330140EA01074FF48850405930
:1030300020F4E81038434FF488514851D4E9350161
:103040000843D4F8DC1040EA010741F2041040596B
:103050002A490840384341F204114851D4E9380163
:103060000843D4F8E81040EA010741F2081040593B
:1030700023490840384341F208114851307E00F09E
:10308000030008B102209FE641F20810405947F6BC
:10309000FE718843B16940EA410141F20810415193
:1030A00031461848FFF775FC31461648FFF744FCD7
:1030B000F0680079F168497940EA0120C5F8000319
:1030C000F068C0780006F168897840EA0140F1684C
:1030D000497840EA0120F16809780843C5F80403FB
:1030E000002071E600080140FCED00E0001000E067
:1030F000830004F000C0F8C000F8FE7FEFFF80FFFF
:10310000FFFF807F00500240F0B5074600250024F5
:1031100000260022002307F13003196953F821200B
:10312000986908B10020F0BD3DE06D1CD06800F04A
:10313000805000B3641C012C00D10E4600BF491C16
:10314000042900D3091F00BF53F82120D06800F0E4
:10315000004058B9D06800F0804038B10120D861F3
:1031600000BF491C042900D3091F00BF19615E611B
:103170009C610120D7E7D06800F0005050B10E46A6
:10318000012400BF491C042900D3091F00BF53F8C4
:10319000212008E0641C00BF491C042900D3091F3A
:1031A00000BF53F82120D06800F0004008B9042D7A
:1031B000BBD33CB3314653F82120002520E01069F1
:1031C0001060D06840F08070D060506928B15069BC
:1031D0009060D06840F00070D060D06840F000404F
:1031E000D060186A18B1D06840F08040D06000BF4D
:1031F000491C042900D3091F00BF53F821206D1C6E
:10320000A542DCD30020986100BF8CE72DE9F04F88
:103210008146884614469A4600270023002100254F
:1032200008F11C0563682A69D5F810C055F822100A
:10323000C86800F00040B0F1004F02D18020BDE826
:10324000F08F207800F0040000B100BF207800F07B
:10325000400038B1C86840F00060C860C86840F0FD
:103260008060C860207800F0040038B9207800F051
:10327000100018B9207800F04000F0B1C86840F0A4
:103280008040C860C86840F00040C86000BF521C61
:10329000042A00D3121F00BF55F822107F1CC868F3
:1032A00000F00040B0F1004F07D155F82C10C8686D
:1032B00020F00040C8608020C1E718680860886876
:1032C0006FF30D00D3F804B040EA0B0088609868F3
:1032D00068B19B68186848608868DFF870B100EAD8
:1032E0000B00B3F804B040EA0B40886007E0002010
:1032F00048608868DFF854B100EA0B0088602078E5
:1033000000F0100098B9C8686FF30E00D4F808B048
:1033100040EA0B00C860207800F0010038B1C868AE
:1033200020F44030D4F810B040EA0B00C860207898
:1033300000F0200038B1C86820F04060D4F80CB02C
:1033400040EA0B00C860C86840F00050C860C86818
:1033500020F08040C860C86840F00040C8605FE06E
:10336000C86820F08050C86000BF521C042A00D3F7
:10337000121F00BF55F822107F1CC86820F00050B3
:10338000C860C86800F00040B0F1004F15D1624637
:1033900055F8221000260CE0C86820F00040C860F4
:1033A00000BF521C042A00D3121F00BF55F8221080
:1033B000761CBE42F0D3802041E79B681868086005
:1033C00088686FF30D00D3F804B040EA0B00886002
:1033D000986868B19B68186848608868DFF86CB0C6
:1033E00000EA0B00B3F804B040EA0B40886007E045
:1033F000002048608868DFF854B000EA0B0088605D
:10340000C8686FF30E00D4F808B040EA0B00C8603B
:10341000C86820F08040C860C86840F00040C860BC
:10342000986800289CD1BAF1000F04D0886840F059
:103430000040886003E0886820F000408860C86829
:1034400040F08050C8602A610020F8E6FFFF00C00D
:10345000F0B504460D46D4F8000200F0010008B1B2
:103460000020F0BDD4F8001221F4781040EA455154
:1034700021F4F81040EA024141F00C0141F0010151
:10348000C4F800121D48006800F0807078B900BFD1
:103490001A48006840F08070184F38600020184FBC
:1034A00078603846006840F00100386000BF14487A
:1034B00046680FE012484068801BB0F5A04F09D95C
:1034C00000BF0E48006820F080700C4F386000BFCD
:1034D0000020C6E7D4F8000200F001000028E9D17E
:1034E00000BF0648006820F08070044F386000BFBD
:1034F0000448D0F8040218600120B2E7FCED00E0B7
:10350000001000E00050024030B505460C46002196
:1035100005F1300050F824100AB1042C01D3022028
:1035200030BD0A600A61C86840F08070C8602BB185
:103530008B604B61C86840F00070C860C86840F09C
:103540000040C8600020EBE770B50A460021002467
:1035500002F1300555F8214000230EE0E56845F002
:103560008045E56000BF491C042900D3091F00BF46
:1035700002F1300555F821405B1C042BEED341F2DB
:1035800034152D584DF24106354341F2341635506D
:10359000056845F002050560056845F00105056010
:1035A000D0F8005D45F00105C0F8005D41F204155A
:1035B0002D5845F0010641F204152E502D1D2D58B1
:1035C00045F0010641F208152E504FF48B552D5849
:1035D00045F481764FF48B552E500126166570BD4B
:1035E0000021017041600172C1600161416181612E
:1035F000C1610184418441628162C16201634163AE
:103600008163C163016441648164C1640165416592
:103610008165C165016641668166C1660167416772
:1036200080F87810C167C0F88010C0F88410C0F826
:103630008810C0F88C1080F89010C0F89410C0F872
:10364000981080F89C10C0F8A010C0F8A410C0F822
:10365000A810C0F8AC10022180F8B010202180F82A
:10366000B1100021C0F8B410C0F8B810C0F8BC10F8
:10367000A0F8C010A0F8C210C0F8C410C0F8C8105C
:10368000C0F8CC10C0F8D010C0F8D4104FF480317E
:10369000C0F8D8100021C0F8DC104FF48031C0F819
:1036A000E0100021C0F8E410C0F8E81070470000F6
:1036B0002DE9F04705460C4690461E46B8F1000F2E
:1036C00002D10220BDE8F087002342462146284669
:1036D000FFF79CFD07460FB13846F3E704F11C00E5
:1036E000E16A50F821A000BFE06A401CE062E06A95
:1036F000042802D3E06A001FE06200BF04F11C004E
:10370000E16A50F821104FF4895041512148006876
:1037100000F0807078B900BF1E48006840F08070EB
:103720001C49086000201C4948600846006840F0B9
:103730000100086000BF1848D0F8049019E04FF469
:103740008B50405900F4805010B14FF48060B9E7BD
:1037500011484068A0EB0900B04200D84EB900BF44
:103760000C48006820F080700A49086000BF0420FF
:10377000A8E7DAF80C0000F000400028DFD100BF15
:103780000448006820F080700249086000BF0020F3
:1037900098E70000FCED00E0001000E0F0B5044602
:1037A0000D46D4F8000200F0010008B10020F0BD81
:1037B000D4F8001221F4781040EA455121F4F810B1
:1037C00040EA024121F00C00011D41F0010198B2D4
:1037D000C4F80402C4F800121B48006800F08070AE
:1037E00078B900BF1848006840F08070164F386004
:1037F0000020164F78603846006840F001003860BD
:1038000000BF124846680FE010484068801BB0F5C2
:10381000A04F09D900BF0C48006820F080700A4F03
:10382000386000BF0020C2E7D4F8000200F00100B9
:103830000028E9D100BF0448006820F08070024FE2
:10384000386000BF0120B2E7FCED00E0001000E0AE
:103850008279002A3DD0234A126803689A43214B9B
:103860001A601A1F126803689A431E4B1B1F1A60C6
:103870000279D1180A6803681A430A604279102A4B
:103880000FD1184A0832126803681A43154B0833DF
:103890001A601A1F126803681A43124B1B1D1A6024
:1038A0001FE0104A0832126803689A430D4B083330
:1038B0001A601A1F126803689A430A4B1B1D1A608C
:1038C0004279084B1B1FD1180A6803681A430A6023
:1038D00007E00279034B1B1FD1180A6803689A435B
:1038E0000A60704704040140002101600421017155
:1038F000082141710021817170470000F0B5034635
:103900001F2A09D90F4F3F6827F4E03022F0004703
:1039100038430C4F386013E08E088F07FC0E0A4FB7
:1039200007EB832505F10C0757F826001F27A74052
:10393000B84302FA04F7384305F10C0747F82600AC
:10394000F0BD00000008014000C002400FB400B507
:103950008DB00E980C9000F009FC684600F068F8F5
:10396000182106A8FDF72EF80F98069010980790DA
:10397000119808901298182206A90B906846FCF737
:10398000C5FF69460E9800F003F80DB05DF814FB12
:10399000F0B50246002346E001279F40D1F800C061
:1039A0000CEA0705002D3DD09E089F07FC0E02F192
:1039B0000C0757F826001F27A740B8434F69A740B8
:1039C000384302F10C0747F8260090680F7907F09A
:1039D0001007102F01D1284300E0A84390605C003D
:1039E00010680327A740B8430F7907F00307A740E3
:1039F0003843106050680327A740B8438F68A7403A
:103A000038435060106A01279F40B843CF689F40F9
:103A100038431062D0690327A740B8430F69A74015
:103A20003843D0615B1C0F68DF40002FB4D1F0BD7C
:103A300000210160C160416041618160012101613B
:103A40007047026B4A40026370470AB1416200E06E
:103A5000816270472DE9F04106460C4617461D4627
:103A6000A1B23A463046FFF7F0FF4FF47A7105FBFA
:103A700001F002F05DF9BDE8F08100BFFEE7000053
:103A800070B504460D469DB1012D02D0032D2CD1F9
:103A90001DE004EB8402164B03EB8202928891B284
:103AA00004EB840253F822000022FFF7CEFF1CE053
:103AB00004EB84020E4B03EB8202928891B204EB7A
:103AC000840253F822000122FFF7BFFF0DE004EB50
:103AD0008402074B03EB8202928891B204EB8402CA
:103AE00053F82200FFF7ADFF00BF00BF70BD00001C
:103AF000FC82012000B591B0142227490CA8FCF7E4
:103B000005FF14220CA92548FCF700FF14222249C6
:103B1000143107A8FCF7FAFE142207A91F48143035
:103B2000FCF7F4FE14221C49283102A8FCF7EEFE33
:103B3000142202A919482830FCF7E8FE01210846A2
:103B400000F0F8F9164A04210120FFF7D7FE1348C8
:103B50000069009011480FC8FFF7F8FE0F48406A4F
:103B600000900E4814300FC8FFF7F0FE0B48806B32
:103B700000900A4828300FC8FFF7E8FE00210846E9
:103B8000FFF77EFF00210120FFF77AFF00210220CE
:103B9000FFF776FF11B000BD70890108FC8201209B
:103BA000004000800FB47CB507A8019001980090F8
:103BB00000210846009B069AFCF7F4FC044600200E
:103BC0000090CCB1601C0BF09BFB054675B1611CED
:103BD0002846019B069AFCF7E5FC224629460B483D
:103BE00001F0CEFC284613F013FA04E01B2208A1D2
:103BF000064801F0C5FC04E018220CA1034801F0BE
:103C0000BFFC002001907CBC5DF814FB0028014043
:103C10004D656D6F727920616C6C6F636174696F53
:103C20006E206661696C6564210D0A00496E7661DB
:103C30006C696420666F726D617420737472696E52
:103C400067210D0A0000000000BFFEE7704700007A
:103C500070B50F22C47814B3164C246804F4E064E1
:103C6000C4F5E064210AC1F1040404F00703CA406A
:103C7000447804FA03F184781440214309010E4C7E
:103C80000678A155047804F01F050124AC4005789E
:103C90006D11AD0005F1E025C5F8004109E004789B
:103CA00004F01F050124AC40044D0678761145F858
:103CB000264070BD0CED00E000E400E080E100E093
:103CC00002490143024A1160704700000000FA05F2
:103CD0000CED00E010B5044609A10C4801F0DAFB38
:103CE00000F01CF80A48006813F006FC0948006858
:103CF00013F002FC0848006813F0C4FA10BD00007D
:103D0000CDF8C2E7C8CECEF10D0A00000028014070
:103D100010000020140000200C0000203EB52A48AE
:103D20002A4908606FF07F402949086029482A49DC
:103D300008600021084612F03BFA28482849002272
:103D4000254BCDE900210290214A2049254809F060
:103D50006BFC244809F034FE224890F83900C0F387
:103D6000800018B11F4809F075FE02E01D4809F0F7
:103D700031FE1C4890F8390000F0010000281ED0E8
:103D800019A0FFF70FFF1748001D06F045F804467D
:103D900021461DA0FFF706FF1248083006F03CF848
:103DA000044621461CA0FFF7FDFE0E480C3006F02D
:103DB00033F8044621461CA0FFF7F4FE03E01EA1E1
:103DC000234801F087FB3EBDC0A800649C00002092
:103DD000A0000020C0A80001A4000020F16201089A
:103DE00021840008209801204E6574776F726B2043
:103DF000636F6E6E656374696F6E20737563636560
:103E0000737366756C0D0A004C6F63616C204950CA
:103E10003A2025730D0A00004E65746D61736B3A8C
:103E20002025730D0A000000476174657761793AB7
:103E30002025730D0A0000004E6574776F726B20A9
:103E40006E6F7420636F6E6E65637465640A000044
:103E50000028014029B1064AD26B0243044BDA63C1
:103E600004E0034AD26B8243014BDA6370470000DF
:103E70000010024029B1064A92690243044B9A613C
:103E800004E0034A92698243014B9A617047000043
:103E90000010024002282DD11B49496A01431A4AE9
:103EA000516200BF00BF194A126842F08072174B7E
:103EB0001A600022164B5A601A46126842F001023C
:103EC0001A6000BF1A46526802F5966100BF104A98
:103ED00052688A42FBD300BF0C4A126822F08072FB
:103EE0000A4B1A6000BF00BF0749496A8143064A6E
:103EF000516208E00449496A0143034A516211468C
:103F0000496A81435162704700100240FCED00E0B5
:103F1000001000E029B1064AD2690243044BDA617D
:103F200004E0034AD2698243014BDA617047000022
:103F30000010024029B1064A126A0243044B1A6279
:103F400004E0034A126A8243014B1A627047000080
:103F5000001002402DE9F04F91B00446002010906F
:103F600076A2D2E90030D2E90212CDE90C30CDE9D7
:103F70000E1276A30FCB08AD0FC5784BD3E9002006
:103F8000D3E9021305AD0BC504927548806C20F08F
:103F90007C487348C06C4FEA90697148006DC0F36B
:103FA000806BBBF1000F15D16E484FEA9831A0FB32
:103FB000011009F101020023CDE900100846019922
:103FC000FCF778FA04220023CDE90201FCF772FA2B
:103FD000064614E063484FEA9831A0FB011009F14E
:103FE00001020023CDE9001008460199FCF762FAAE
:103FF00004220023CDE90201FCF75CFA0646A66123
:104000005748406800F04075B5F1807F02D15548AF
:1040100020601EE015B9534820601AE0B5F1007F1A
:1040200015D14F48006C00F44010B0F5801F01D14D
:1040300026600EE04A48006C00F44010B0F5401FC6
:1040400002D14948206004E00120109001E0454879
:104050002060109801282DD141484068C0F3C50068
:10406000042101EB40083E48006CC0F3014000F120
:1040700001093B48006CC0F3814A3948406800F0B0
:10408000010BBBF1000F07D135484068C0F3800138
:10409000344820FA01F606E031484068C0F3400198
:1040A000304820FA01F6B6FBF9F000FB08F020FAE0
:1040B0000AF626602A48406800F470252D0C082D69
:1040C00000D200250CA8475D2068F84060602448B5
:1040D000406800F460656D0A0CA8475D6068F840B0
:1040E000A0601F48406800F4E0452D0B0CA8475D18
:1040F0006068F840E0601A48806800F00F0508A882
:10410000475D6068B0FBF7F060611548806800F0BB
:1041100070052D0904A830F815701148806800F06A
:104120008000802804D11048B0FBF7F0206102E045
:10413000B6FBF7F0206111B0BDE8F08F0000000081
:104140000102030401020304060708090102030433
:1041500006080A0C10202020202020206089010859
:104160000010024000127A00001C4E0E01B5994961
:104170000098884204D101210846FFF76BFE27E131
:1041800095490098884204D101210220FFF762FE80
:104190001EE192490098884204D101210420FFF7D2
:1041A00059FE15E18E490098884204D1012108206A
:1041B000FFF750FE0CE18B490098884204D10121A1
:1041C0001020FFF747FE03E187490098884204D199
:1041D00001212020FFF73EFEFAE084490098884242
:1041E00004D101214020FFF735FEF1E0804900981D
:1041F000884204D101218020FFF72CFEE8E07D49B0
:104200000098884204D101212020FFF793FEDFE0CF
:1042100079490098884204D101210420FFF77AFEF1
:10422000D6E076490098884204D101210820FFF7A2
:1042300071FECDE072490098884204D101218803C3
:10424000FFF778FEC4E06F490098884204D101214D
:104250002020FFF75FFEBBE06B490098884204D145
:1042600001214020FFF766FEB2E0684900988842CD
:1042700004D101218020FFF75DFEA9E06449009888
:10428000884204D101211020FFF744FEA0E06149DB
:104290000098884204D101210015FFF73BFE97E00A
:1042A0005D490098884204D10121C014FFF732FE15
:1042B0008EE05A490098884204D101218014FFF70A
:1042C00029FE85E056490098884204D10121401416
:1042D000FFF720FE7CE053490098884204D1012179
:1042E0000014FFF717FE73E04F490098884204D18D
:1042F0000121C013FFF70EFE6AE04C490098884286
:1043000004D101210804FFF705FE61E04849009847
:10431000884204D101218015FFF70CFE58E0454981
:104320000098884204D101214015FFF703FE4FE0B9
:1043300041490098884204D101210015FFF7FAFD98
:1043400046E03E490098884204D101218805FFF7E4
:10435000E1FD3DE00098B0F1402F04D10121C805F6
:10436000FFF7D8FD34E036490098884204D1012196
:104370004015FFF76FFD2BE032490098884204D1C9
:1043800001210015FFF766FD22E02F4900988842C1
:1043900004D10121C014FFF75DFD19E02B490098FD
:1043A000884204D101218014FFF754FD10E0284910
:1043B0000098884204D101218020FFF75BFD07E0CF
:1043C00024490098884203D101218015FFF752FD4E
:1043D00008BD000000C0024000C4024000C8024006
:1043E00000CC024000D0024000D4024000D802407D
:1043F00000DC0240001C0140000C004000100040A6
:1044000000280140006800400020014000240140D5
:1044100000140040002C00400030004000340040F8
:1044200000380040005C0040006000400064004034
:10443000000C01400010014000140140003C00400D
:1044400000B0024000B4024000B8024000BC02408C
:10445000000002400004024070B505460C46002CE6
:104460004FD15248854210D10CB9012000E0002004
:104470000246012340214E48FFF7ECFA4D490868F7
:104480004FF0FF3113F006FE8EE04B48854210D10D
:104490000CB9012000E0002002460123802144489D
:1044A000FFF7D8FA434948684FF0FF3113F0F2FDA7
:1044B0007AE04248854210D10CB9012000E000208A
:1044C0000246012359023E48FFF7C4FA3949886879
:1044D0004FF0FF3113F0DEFD66E03A48854263D1CC
:1044E0000CB9012000E000200246012319033448E2
:1044F000FFF7B0FA2F49C8684FF0FF3113F0CAFD3B
:1045000052E02A48854211D10CB9012000E0002078
:104510000246012340212648FFF79CFA2549002343
:104520001A460868194613F0F7FA3DE0224885421A
:1045300011D10CB9012000E00020024601238021A6
:104540001B48FFF787FA1B4900231A46486819469B
:1045500013F0E2FA28E01948854211D10CB9012084
:1045600000E000200246012359021548FFF772FAC5
:10457000104900231A468868194613F0CDFA13E053
:104580001048854210D10CB9012000E000200246FD
:10459000012319030A48FFF75DFA064900231A466A
:1045A000C868194613F0B8FA70BD0000001C01403D
:1045B00000C002400C980120002401400028014066
:1045C00000D00240002001400EE0084988684FF00A
:1045D000FF3113F05FFD012806D1054882680548C8
:1045E000816805A0FFF7DEFAEFE70000F8970120E9
:1045F000C0890108AC8901085B25735D25730D0A2C
:104600000000000030B50146214BDB6943F0010397
:104610001F4CE361A304186820F438700843186045
:104620001B6843F01003A4042360002200E0521C26
:10463000B2F5FA6FFBD300BF4FF080435B6803F025
:104640000403002BF8D100BF00BF124C246844F0D3
:104650008074104D2C6000240F4D6C602C46246833
:1046600044F001042C6000BF2C4664680B4D6319B4
:1046700000BF094C64689C42FBD300BF054C246812
:1046800024F08074034D2C6000BF00BF30BD0000DB
:1046900000100240FCED00E0001000E080A90300E3
:1046A0001EB52DA41CCC8DE81C002E4A106820F0ED
:1046B000070040F0050010602B4A52682A4B5A60F0
:1046C0001A46526842F480425A601A46526842F4CE
:1046D00000625A601A465068116C6FF30800234A52
:1046E000114000BF40F0680000F4FC72502A03D86B
:1046F00046F2403211430AE000F4FC72902A03D8DB
:1047000046F24072114302E046F64042114300BFB8
:104710009DF8012041EA8241134A506011641268F9
:1047200042F00102104B1A6000BF0F4A126802F0FB
:104730000202002AF9D00C4A506820F0406040F094
:104740000060506000BF084A526802F04072B2F147
:10475000007FF8D11EBD000000000101020202022C
:104760000303000000200240001002400F80F0FF11
:104770001CB541E012F004FC2048012100238022F6
:10478000CDE900101EA1214813F0D0FD20480121E1
:1047900000238022CDE900101EA1214813F0C6FDA0
:1047A0002048012100230A02CDE900101EA1214862
:1047B00013F0BCFD2048012100238A02CDE900103E
:1047C0001EA1214813F0B2FD2048012100238A02D6
:1047D000CDE900101EA1214813F0A8FD164800687D
:1047E00012F020FF1948006812F01CFF1C480068F6
:1047F00012F048FD12F0EEFBBCE7000004000020C0
:104800004272656174685F5461736B0097200008A1
:1048100008000020526563765F5461736B000000EE
:10482000C94500080C0000204E65745F5461736B2D
:1048300000000000D53C0008100000205443505FE9
:104840005461736B0000000031490008140000201F
:104850005544505F5461736B000000003D4D0008EB
:104860000000002010B500BF502080F31188BFF376
:104870004F8FBFF36F8F00BF13F0A4FD18B14FF03F
:1048800080500449086000BF002080F3118800BFF9
:1048900010BD000004ED00E010B52048006840F4B1
:1048A00070001E4908601E48006840F004001C4962
:1048B0000860084640681B49084019494860084696
:1048C000006820F0D1000860084640686FF30800D7
:1048D00048600846006C20F47C1008644FF4E04007
:1048E00088607120C86010480861002008630F4884
:1048F000006840F010000D4908600846006820F08C
:1049000080000860FFF7CCFE4FF00060034980395B
:1049100008608014FFF776FE10BD000088ED00E00F
:1049200000100240FF01F0330000FF0100200240B0
:10493000CAB04FF0FF350024102040900020459071
:10494000469047904890419042904390449044480C
:10495000499065200023A822C021009041A0FFF7C4
:1049600021F941F66B6146A0FFF71CF902208DF892
:1049700015014998469041F66B6006F033F8ADF8A2
:1049800016016CE000220121022007F017FC054609
:10499000002D07DA3FA0FFF705F94FF47A7012F007
:1049A00043FC5CE0102245A9284605F037FF50B1D2
:1049B0003CA0FFF7F7F8284605F0DCFE4FF47A70CC
:1049C00012F032FC4BE040AA41A9284605F0F2FF64
:1049D000BDF8060106F006F8064642A805F01CFAE6
:1049E00007463246394634A0FFF7DCF834E0802130
:1049F00020A8FBF7E7FF80216846FBF7E3FF0023D1
:104A0000802220A9284607F053F80446002C13DD25
:104A100020AB34A280216846FBF7DEFD044600236C
:104A200022466946284607F08BFA0446002C12DC21
:104A300030A0FFF7B7F80EE054B932A0FFF7B2F894
:104A4000284605F097FE4FF47A7012F0EDFB04E073
:104A500032A0FFF7A7F800BFC9E700BF00BF91E78A
:104A6000C0A800655365727665722049503A2025CA
:104A7000642E25642E25642E25640D0A0000000096
:104A800053657276657220506F72743A2025640DFA
:104A90000A000000736F636B6574206572726F7239
:104AA0000D0A0000636F6E6E656374206661696C49
:104AB0006564210D0A0000005468652073657276F4
:104AC000657220697320636F6E6E65637465642020
:104AD00066726F6D206C6F63616C2025733A25647C
:104AE0000D0A00005B796F75207361795D3A25735B
:104AF0000000000073656E64206572726F720D0AAB
:104B00000000000053657276657220646973636FFC
:104B10006E6E65637465640D0A00000072656376ED
:104B2000206572726F720D0A0000000010B5AAB005
:104B3000142235491DA8FBF7E9FE1422324914312D
:104B400018A8FBF7E3FE20222F49283122A8FBF703
:104B5000DDFE1DA8239018A8202222A924902B480E
:104B6000FBF7D4FE284B48330FCB149015911692C7
:104B7000179326496039096E14A81491244914AA80
:104B80001CCA30311CC1179A3C39CA631F486038AF
:104B9000D0E91D23016FC06F8DE80E0003901B4804
:104BA000603860300FC800F0DFFA194A916B506B23
:104BB000FBF7E6FE1422144958310FA8FBF7A6FEB6
:104BC00014220FA90AA8FBF7A1FE0E9800900AA8CC
:104BD0000FC8FEF7BBFE02230022DDE90A01FEF743
:104BE00039FF14220BA105A8FBF790FE05A8FBF7DF
:104BF00029FE0446054960392246086E05A900F0E1
:104C0000BFFC2AB010BD0000188B0108988301205A
:104C1000B88301205B52454144595D5253343835C5
:104C20005F340D0A0000000010B5032000F048FBBF
:104C300010BD000010B5AAB0142235491DA8FBF71D
:104C400065FE14223249143118A8FBF75FFE2022BA
:104C50002F49283122A8FBF759FE1DA8239018A838
:104C6000202222A924902B48FBF750FE284B4833E2
:104C70000FCB149015911692179326492039096A83
:104C800014A81491244914AA1CCA10311CC1179AE3
:104C90001C39CA611F482038D0E90D23016BC06B55
:104CA0008DE80E0003901B48203820300FC800F01C
:104CB0005BFA194A91695069FBF762FE14221449A4
:104CC00058310FA8FBF722FE14220FA90AA8FBF700
:104CD0001DFE0E9800900AA80FC8FEF737FE0223AB
:104CE0000022DDE90A01FEF7B5FE14220BA105A89A
:104CF000FBF70CFE05A8FBF7A5FD04460549203986
:104D00002246086A05A900F03BFC2AB010BD00004D
:104D1000408A010858830120B88301205B52454135
:104D200044595D52533438355F320D0A000000009B
:104D300010B5012000F0C4FA10BD0000CCB04FF057
:104D4000FF3500240020489049904A904B904490B1
:104D500045904690479002208DF811010020459023
:104D600041F6076005F03EFEADF8120141F607611D
:104D700033A0FEF717FF61E000220221084607F08A
:104D80001DFA0546002D07DA31A0FEF70BFF4FF4A0
:104D90007A7012F049FA51E0102244A9284605F031
:104DA0009DFC50B12EA0FEF7FDFE284605F0E2FC6A
:104DB0004FF47A7012F038FA40E03EE0802123A8E8
:104DC000FBF700FE802103A8FBF7FCFD43A848A9E0
:104DD00000238022CDE9001023A9284606F09CFF7D
:104DE0000446002C03DA22A0FEF7DCFE24E0BDF826
:104DF000220105F0F7FD064649A805F00DF8074623
:104E0000324639461EA0FEF7CDFE23AB21A28021FB
:104E100003A8FBF7E1FB044648A943980023224678
:104E2000CDE9001003A9284607F0D8F80446002C65
:104E300002DA1CA0FEF7B6FE00BFBFE79CE7000049
:104E40004C6F63616C20706F72743A2025640A00A5
:104E5000736F636B6574206572726F720A00000075
:104E600062696E64206661696C65640A0000000016
:104E70007265637666726F6D206572726F720A007A
:104E8000526563656976652066726F6D2025733A99
:104E900025640A005B796F75207361795D3A25732B
:104EA0000000000073656E64746F206572726F722B
:104EB0000A00000010B5AAB0142231491DA8FBF762
:104EC00025FD14222E49143118A8FBF71FFD2022BE
:104ED0002B49283122A8FBF719FD1DA8239018A8FB
:104EE000202222A924902748FBF710FD244B4833A9
:104EF0000FCB14901591169217932249096814A8A4
:104F00001491214914AA1CCA0A604B608C6017993D
:104F10001D4AD1601B4B10330FCB8DE80F00194891
:104F20000FC800F021F9184A91685068FBF728FD76
:104F30001422134958310FA8FBF7E8FC14220FA9DB
:104F40000AA8FBF7E3FC0E9800900AA80FC8FEF72A
:104F5000FDFC02230022DDE90A01FEF77BFD14229D
:104F60000AA105A8FBF7D2FC05A8FBF76BFC0446D9
:104F700004492246086805A900F002FB2AB010BDCA
:104F8000D489010838830120B88301205B52454150
:104F900044595D52533438355F310D0A000000002A
:104FA00010B5002000F08CF910BD000010B5AAB0BB
:104FB000142232491DA8FBF7A9FC14222F491431F1
:104FC00018A8FBF7A3FC20222C49283122A8FBF7C4
:104FD0009DFC1DA8239018A8202222A924902848CF
:104FE000FBF794FC254B48330FCB14901591169288
:104FF000179323494039096C14A81491214914AA24
:105000001CCA20311CC1179A2C39CA621C4840386E
:10501000D0E91523016DC06D8DE80E00039018488E
:10502000403840300FC800F09FF8164A916A506A25
:10503000FBF7A6FC1422114958310FA8FBF766FCB8
:1050400014220FA90AA8FBF761FC0E9800900AA889
:105050000FC8FEF77BFC14220BA105A8FBF756FC3A
:1050600005A8FBF7EFFB0446054940392246086CCA
:1050700005A900F085FA2AB010BD0000AC8A01082D
:1050800078830120B88301205B52454144595D5229
:10509000533438355F330D0A0000000010B502208C
:1050A00000F00EF910BD01F460220AB1C16003E006
:1050B00041F46022D243C260704730B503461846BF
:1050C00021F0704401F0805505B10AE001F000556F
:1050D0000DB1001D05E001F080450DB1083000E084
:1050E0001C301AB105682543056002E00568A54338
:1050F000056030BD21B1026842F00102026003E0A8
:10510000026822F00102026070471AB183680B4303
:10511000836002E083688B43836070470246D368F4
:105120000B400BB1012000E00020704710B5024693
:1051300021F0704301F0805414B1146823400DE055
:1051400001F0005414B15468234007E001F080449A
:1051500014B19468234001E0D46923400BB10120CD
:1051600000E0002010BD00000FB400B5ADB0524803
:1051700000682C902C98FEF7F9FF309800682B906F
:10518000FEF7F4FF2F9800682A90FEF7EFFF2E98A5
:105190002990FEF7EBFF17A8FEF74AFC18224649B4
:1051A000091D23A8FBF7B2FB309840682390309884
:1051B0000069182223A9289017A8FBF7A7FB3099AC
:1051C000086817A9FEF7E4FB18223B491C311DA80B
:1051D000FBF79CFB2F9840681D902F9800691822C0
:1051E0001DA9229017A8FBF791FB2F99086817A912
:1051F000FEF7CEFB2E9800F00FFAC0B28DF85800E3
:1052000006208DF8590000208DF85A0001208DF8F5
:105210005B0016A8FEF71CFD3298FCF749FF08A8B2
:10522000FDF76CF82E981030089033980990002004
:105230000A9034980B9000200C9080200D90002054
:105240000E900F9010904FF440501190002012904B
:1052500008A93298FDF718F8012232993598FDF720
:1052600045F801A800F0B1F93198019000200290B2
:1052700003900490069007900620059001A92E98AF
:1052800000F08CF801220D492E98FFF716FF4021FF
:105290002E98FFF708FF012220212E98FFF735FFF7
:1052A00001213298FCF7E0FF01212E98FFF722FF41
:1052B0002DB05DF814FB0000848B01080001001084
:1052C00038B50446304901EB041108684021FFF766
:1052D00025FF002857D02C4901EB041108682B4901
:1052E000FFF724FF00284ED0274800EB0410006889
:1052F000C068254800EB041000680069244901EBF0
:1053000044110869FCF7BBFF1F4901EB04118968D0
:10531000081A1D4901EB0411C86000201A4901EB6D
:1053200004114968184A02EB0412D26888541849DB
:1053300001EB441108690021FCF796FF124A02EBC9
:105340000412128991B2124A02EB44121069FCF75E
:10535000D3FF0F4901EB441108690121FCF784FFD9
:10536000002000900B4951F82400694612F038FDE6
:10537000009838B14FF0805007490860BFF34F8F55
:10538000BFF36F8F00BF38BDB8830120000100104C
:1053900038830120F897012004ED00E02DE9F04763
:1053A00088B005460F462E466C6824F06004B86845
:1053B00004436C602C6832480440F96878680843FC
:1053C000B96908433969084304432C60AC6824F088
:1053D000050478690443AC6001A8FEF7BBFD2948C9
:1053E000864208D02848864205D02848864202D006
:1053F0002748864202D1DDF8109001E0DDF80C90DC
:10540000286800F0806048B94FEA990000EBC001BD
:1054100001EB00103968B0FBF1FA08E04FEA5900DF
:1054200000EBC00101EB00103968B0FBF1FA642019
:10543000BAFBF0F004012009642101FB10A82868E0
:1054400000F0806078B1322000EBC800B0FBF1F0D2
:1054500000F00F080120B0EBD80F01D110340BE0A1
:1054600044EA080408E0322000EB08106421B0FB95
:10547000F1F000F01F0004446C6108B0BDE8F08753
:10548000C1FFFFFB001C014000280140002001403B
:10549000002401400FB430B5ADF2044D04460DF5C3
:1054A000836000904FF4806101A8009BDDF8142414
:1054B000FBF778F80020009001A8FBF7C3F9054638
:1054C0002A4601A9204600F05BF80DF2044D30BCDD
:1054D0005DF814FB0FB47CB5064608A8019001984E
:1054E000009000210846009B079AFBF75BF80446F2
:1054F00000200090CCB1601C09F002FF054675B198
:10550000611C2846019B079AFBF74CF82246294666
:10551000304600F035F8284611F07AFD04E01B22F1
:1055200007A1304600F02CF804E018220BA1304609
:1055300000F026F8002001907CBC5DF814FB000010
:105540004D656D6F727920616C6C6F636174696F0A
:105550006E206661696C6564210D0A00496E766192
:105560006C696420666F726D617420737472696E09
:1055700067210D0A00000000C1F3080202617047B4
:105580002DE9F04107460D46164600213846FEF744
:1055900063FF002411E04FF480713846FFF783FD6C
:1055A000295D3846FFF7E8FF00BF4FF480713846A9
:1055B000FFF7B4FD0028F8D0641CB442EBD30121FE
:1055C0003846FEF749FFBDE8F0814FF416510160FF
:1055D000002141608160C1600621016100214161BB
:1055E0008161704710B500240EE0032200210120E4
:1055F00012F0F5F9064941F82400012012F0DEF915
:10560000044941F82400641C052CEED310BD0000B1
:10561000F89701200C98012001461548814201D1DC
:10562000252070471348814201D12620F9E712480E
:10563000814201D12720F4E71048814201D1342072
:10564000EFE70F48814201D13520EAE70D4881425A
:1056500001D14A20E5E70C48814201D14B20E0E727
:105660000A48814201D15520DBE72520D9E7000017
:10567000001C0140000C00400010004000280140C8
:105680000068004000200140002401400014004058
:1056900000BFFEE703B401984100009850EAC12022
:1056A00018BF04204A0D18BF40F0010040F2FF72FD
:1056B000B2EB515F08BF40F00200012808BF05208F
:1056C00002B0704730380A2801D20120704700200C
:1056D000704700002DE9F04105460C4617460AF0D8
:1056E0007BFC00BF2FB900BF0AA112A0FEF75AFA37
:1056F00000BF00BF27616E6C05E0A64202D100200A
:10570000BDE8F0813668002EF7D1686C20606C64CB
:105710000020F5E76163645F636F6E666C696374B4
:105720005F63616C6C6261636B20213D204E554C60
:105730004C00000025730D0D000000007FB50646EB
:105740000D46D6F832000090F08EADF80400D5F882
:105750000E000390A8690290746C37E0207A082844
:1057600005D2DFE800F0050708091F20210600BF69
:1057700000BF29E000BF00BF0398616888420CD0D9
:10578000039870B90298616888420AD1062205F12F
:1057900008016846FBF72AF818B12146304600F0A8
:1057A000B1F811E000BF00BF0398616888420AD1D8
:1057B000062205F108016846FBF718F818B12146E2
:1057C000304600F006F800BF00BF2468002CC5D1A9
:1057D0007FBD70B505460C46207A062807D12046C5
:1057E00000F0CCF802212846226990470DE0207B8A
:1057F000002804DD2146284600F084F805E0211D3C
:10580000284601F09FFE6420207370BD2DE9F04111
:1058100007460C46164624B1206810B10EB1306818
:1058200008B9BDE8F0817D6C12E0686821688842A3
:105830000DD1208880B24FF6A961884207D1308807
:1058400080B2884203D02946384600F005F82D681A
:10585000002DEAD100BFE4E770B505460C46207A7A
:10586000082805D2DFE800F0050708091213060A28
:1058700000BF00BF0EE000BF00BF00BF204600F029
:105880007DF8022128462269904703E000BF0620E8
:10589000207200BF00BF70BD2DE9F04106460C46E6
:1058A00000270AF099FB756C0BE0A54207D117B1F0
:1058B0002068386001E020687064BDE8F0812F4600
:1058C0002D68002DF1D100BF00BF04A10BA0FEF791
:1058D00069F900BF00BF00BFEFE700006163645FCC
:1058E00072656D6F766528293A20616364206E6F5A
:1058F00074206F6E206C6973740A000025730D0D9F
:105900000000000070B505460C46607B401C6073CB
:105910000221284622699047607B0A2805DB072080
:1059200020724FF41670608106E0204600F026F8E1
:10593000012128462269904770BD37B503460020F3
:1059400000224A720A73029A4A6001220A723722BE
:10595000D25C14063522D25C44EA02443422D25C82
:1059600044EA02223624E45C22434C7A22440A248C
:10597000B2FBF4F504FB15224A813EBD014609B194
:10598000002008720020704770B53D48056873E03C
:105990006C6C6EE0207B002802DD207B401E2073B3
:1059A0006089002802DD6089401E6081207A082815
:1059B0005CD2DFE800F05B040532335B5B5100BF73
:1059C000608948BB02202072211D284601F0D0FDCD
:1059D000607A401C6072607A032806DB0320207224
:1059E000002060721420608116E03720405D0106BF
:1059F0003520405D41EA00413420405D41EA00200D
:105A00003621495D0843617A08440A21B0FBF1F26E
:105A100001FB12000A30608129E000BF6089D0B923
:105A2000607A18B90420207200206073211D284676
:105A300001F088FD14206081607A401C6072607AF9
:105A4000022808DB0520207200206072608100219E
:105A50002846226990470AE0608930B92046FFF75E
:105A60008DFF012128462269904700E000BF00BF5A
:105A70002468002C8ED12D68002D89D170BD0000C6
:105A8000100100202DE9F04105460E46002441E0BA
:105A90000AF036FA0746224800EB04100068002896
:105AA00034D11F4800EB0410056038460AF08EFA26
:105AB00000201B4901EB0411486000BF184800EBAF
:105AC0000410807B28B100BF16A11EA0FEF76AF863
:105AD00000BF00BF0020124901EB041108812878A3
