:020000040800F2
:1000000058A90120250400084526000845240008B9
:1000100041260008D91F0008AD3F0008000000007D
:100020000000000000000000000000006503000860
:10003000B922000800000000C1030008F5340008E0
:100040003F0400083F0400083F0400083F04000884
:100050003F0400083F0400083F0400083F04000874
:100060003F0400083F0400083F0400083F04000864
:100070003F0400083F0400083F0400083F04000854
:100080003F0400083F0400083F0400083F04000844
:100090003F0400083F0400083F0400083F04000834
:1000A0003F0400083F0400083F0400083F04000824
:1000B0003F0400083F0400083F0400083F04000814
:1000C0003F0400083F0400083F0400083F04000804
:1000D0003F040008BD3800083F0400083F04000842
:1000E0003F0400083F0400083F0400083F040008E4
:1000F0003F0400083F0400083F0400083F040008D4
:100100003F0400083F0400083F0400083F040008C3
:10011000B93900083F0400083F0400083F04000804
:100120003F0400083F0400083F0400083F040008A3
:100130003F0400083F040008000000003F040008DE
:100140003F0400083F0400083F0400083F04000883
:100150003F0400083F0400083F0400083F04000873
:100160003F0400083F040008BD360008C5370008FA
:100170003F0400083F0400083F0400083F04000853
:100180003F040008000000003F0400083F0400088E
:100190003F0400083F0400083F0400083F04000833
:1001A0003F0400083F0400080000000000000000B9
:1001B000000000000000000000000000000000003F
:1001C0000000000000000000000000003F040008E4
:1001D0003F0400083F0400083F0400083F040008F3
:1001E0003F0400083F0400083F0400083F040008E3
:1001F0003F0400083F0400083F0400083F040008D3
:100200003F0400083F0400083F0400083F040008C2
:100210003F0400083F04000800F002F800F092F8E4
:100220000AA090E8000C82448344AAF10107DA4551
:1002300001D100F087F8AFF2090EBAE80F0013F011
:10024000010F18BFFB1A43F0010318478466000032
:10025000A4660000103A24BF78C878C1FAD85207C3
:1002600024BF30C830C144BF04680C607047000030
:100270000023002400250026103A28BF78C1FBD8AF
:10028000520728BF30C148BF0B6070476E2900F08D
:100290006A84702900F05582662906F03981652943
:1002A00006F03681672906F03381612906F0328134
:1002B00003681B0A28BF41F08001692900F0C6814C
:1002C000642900F0C381752900F0C0816F2900F016
:1002D0005885782900F02182E92900F0F384E42987
:1002E00000F0F084F52900F0ED84EF2900F0558549
:1002F000F82900F020820368DB0928BF41F0800163
:10030000632900F07484732900F07984E32901F0F3
:100310002B81F32901F03081002070471FB506F0D2
:10032000F2F801F07BF904000020002106F05EF8ED
:10033000401C60600020002106F042F8E0601FBD14
:1003400010B510BD01F03CF91146FFF7E7FF03F0CF
:100350007BFE01F019FA03B4FFF7F2FF03BC01F0D2
:1003600063FA00002C4B19680868B0E8F04F80F37E
:100370000988BFF36F8F4FF0000080F3118870473A
:100380000000000008480068006880F308884FF00B
:10039000000080F3148862B661B6BFF34F8FBFF3DD
:1003A0006F8F00DF00BF00BF08ED00E0DFF80C003A
:1003B000016841F470010160704700BF88ED00E002
:1003C000EFF30980BFF36F8F134B1A681EF0100F05
:1003D00008BF20ED108A20E9F04F106009B44FF0FB
:1003E000500080F31188BFF34F8FBFF36F8F04F07D
:1003F00087FF4FF0000080F3118809BC1968086876
:10040000B0E8F04F1EF0100F08BFB0EC108A80F378
:100410000988BFF36F8F704714000020EFF3058049
:10042000704700000948804709480047FEE7FEE79B
:10043000FEE7FEE7FEE7FEE7FEE7FEE7FEE7FEE794
:1004400004480549054A064B704700002935000855
:10045000190200085897012058A901205899012035
:100460005899012053EA020C00F069802DE9F04B05
:100470004FF00006002B1FBFB3FA83F503FA05F413
:1004800024FA05F65E4012BF1643B2FA82F502FA6C
:1004900005F4C5F120051EBF22FA05FC44EA0C0450
:1004A000203556EA044C4FEA144418BF641C4FF040
:1004B00000084FF00009904271EB030C39D300297A
:1004C00019BFB1FA81F701FA07F6B0FA80F700FA1E
:1004D00007F6C7F120071EBF20FA07FC46EA0C0604
:1004E0002037B6FBF4FCA7EB0507103F07F01F0B06
:1004F000CBF120060CFA0BFB2CFA06F644BFB346F0
:100500000026202FA4BF5E464FF0000B5BEA060CCE
:1005100008BF4FF0010B19EB0B09ABFB027C48EB5A
:100520000608C01B06FB02CC0BFB03CC71EB0C01D5
:10053000C1E70B46024641464846BDE8F08B13B57D
:100540004FF000004FF00001AFF30080BDE81C4009
:10055000704700007CB51D4616460C00009001D087
:100560002044401E074B7B442A4669460190304692
:1005700000F013FB05461CB10020694600F020FB8B
:1005800028467CBD6106000070B504468569006898
:10059000C10601D5302600E02026C00707D070BD77
:1005A000D4E9012130469047206A401C20626D1E2C
:1005B000F6D570BD70B5044685690078C00707D1CF
:1005C00070BDD4E9012120209047206A401C2062A0
:1005D0006D1EF6D570BD09684A0501D540B2704759
:1005E000C905FCD500B2704709684A0501D5C0B2FB
:1005F0007047C905FCD580B2704770B50C460546FA
:10060000012A05D02878800600D5EA69002302E097
:10061000012305E05B1C934202D2E05C0028F9D183
:10062000A869E618C01AA861286A184428622846F2
:10063000FFF7AAFF04E0D5E9012114F8010B904768
:10064000B442F8D32846FFF7B5FF70BD2DE9F0415D
:100650000646002410687529314616A510D0FFF70C
:10066000BAFF002802DA404213A507E031688A0782
:1006700001D512A502E0490704D511A5012401E026
:10068000FFF7B2FF00210A2206F1240709E0B0FBC0
:10069000F2FCB0FBF2F302FB1C0030307854184639
:1006A000491C0028F3D123462A463046BDE8F041D4
:1006B00000F000BA000000002D0000002B00000038
:1006C00020000000F0B40D460188090502D5214C38
:1006D0007C4402E01F4C7C440E34002100F12406CF
:1006E00008E002F00F071209E75D42EA03721B09F6
:1006F0007754491C52EA0307F3D10278002312070A
:1007000004D5702D06D009B1022311342246F0BC65
:1007100000F0D0B901231034F8E770B504460D4657
:1007200021461068FFF760FF024629462046BDE8D3
:1007300070400023C6E7D21D22F00703D3E900234F
:10074000C0E70368126843F0200303600823C36115
:100750000023B7E7D46000002DE9F05F8946044626
:100760004FF0000ADFF874B1FB44C0F820A0204627
:10077000E1688847002874D0252806D0D4E90121F3
:100780009047206A401C2062F1E700265F46204621
:10079000E16888472028054607DB312D05D2781906
:1007A00010F8200C08B10643F1E7B00701D526F098
:1007B0000406C4F81CA00027C4F818A02A2D09D0EC
:1007C000284603F00DFC38B304EB8708303DC8F829
:1007D000185019E059F8041B204604EB8702916178
:1007E000E1688847012F054618D1E069002820DA22
:1007F00026F020061DE0D8F8180000EB800005EB7D
:1008000040003038C8F818002046E168884705469F
:1008100003F0E6FB0028EED1012F0AD02E2D08D1DF
:100820002046E16888477F1C0546022F46F02006D7
:10083000C4DBA069002803DA404246F00106A0614B
:10084000F00701D026F010066C2D0BD0682D09D0D2
:100850004C2D39D06A2D35D0742D35D07A2D33D02A
:1008600016E038E0E1682F4620468847B842054642
:1008700009D16C2F26D04FF48060E16806432046F2
:100880008847054604E06C2F1AD04FF48070064369
:100890000DB3A5F14100192802D8203546F40066B1
:1008A0004A462946204626604E46FFF7EFFC80B1B7
:1008B00001280BD0F61D26F0070000F1080956E7C5
:1008C0004020E4E78020D8E70020D6E706F10409BD
:1008D0004DE7284652E7206ABDE8F09F64600000BB
:1008E00010B5431C02E010F8011B71B18107FAD169
:1008F0004FF0013202C88C1A8C4314EAC211F9D0AD
:10090000C01A0A0603D0C01E10BDC01A10BD0A04CA
:1009100001D0801E10BD0902FCD0401E10BD032A6C
:1009200040F2308010F0030C00F0158011F8013B0C
:10093000BCF1020F624498BF11F801CB00F8013BF3
:1009400038BF11F8013BA2F1040298BF00F801CBB7
:1009500038BF00F8013B11F0030300F02580083A8E
:10096000C0F0088051F8043B083A51F804CBA0E8E5
:100970000810F5E7121D5CBF51F8043B40F8043B3A
:10098000AFF30080D20724BF11F8013B11F801CB6F
:1009900048BF11F8012B24BF00F8013B00F801CB40
:1009A00048BF00F8012B704710B5203AC0F00B800B
:1009B000B1E81850203AA0E81850B1E81850A0E863
:1009C0001850BFF4F5AF5FEA027C24BFB1E81850BD
:1009D000A0E8185044BF18C918C0BDE810405FEA2D
:1009E000827C24BF51F8043B40F8043B08BF7047A9
:1009F000D20728BF31F8023B48BF11F8012B28BFAE
:100A000020F8023B48BF00F8012B704702F0FF03BB
:100A100043EA032242EA024200F002B84FF0000229
:100A20000429C0F0128010F0030C00F01B80CCF100
:100A3000040CBCF1020F18BF00F8012BA8BF20F86E
:100A4000022BA1EB0C0100F00DB85FEAC17C24BFC2
:100A500000F8012B00F8012B48BF00F8012B70476C
:100A60004FF0000200B5134694469646203922BF47
:100A7000A0E80C50A0E80C50B1F12001BFF4F7AF92
:100A8000090728BFA0E80C5048BF0CC05DF804EB74
:100A9000890028BF40F8042B08BF704748BF20F8E2
:100AA000022B11F0804F18BF00F8012B70477047E0
:100AB000704770472DE9F0470D4699469246044627
:100AC00000F124080168880604D5E06921F01001CE
:100AD000216000E00120A84201DD471B00E0002763
:100AE000A1697A1902EB0900081AA0612078C006F2
:100AF00002D42046FFF748FD002608E0D4E9012192
:100B00001AF806009047206A401C761C20624E4569
:100B1000F4DB2078C0060AD52046FFF735FD06E055
:100B2000D4E9012130209047206A401C2062381E01
:100B3000A7F10107F4DC07E0D4E9012118F805006A
:100B40009047206A401C2062281EA5F10105F3DCB5
:100B50002046FFF72FFD2078000602D50220BDE8D1
:100B6000F0870120FBE711680268006A530501D590
:100B700008700AE0D30501D5088006E0130603D506
:100B8000C217C1E9000200E00860012070470000C0
:100B900001694A1C02610878704700B58FB0CDE941
:100BA00001310021059105497944CDE90310114631
:100BB0006846FFF7D1FD0FB000BD0000E5FFFFFF65
:100BC0000A6802F8010B0A607047D1E900239A42D3
:100BD00002D2531C0B601070704710B5436913B1FB
:100BE000AFF3008001E0FFF708FD012010BD12788F
:100BF00000F124010A7000224A700122EDE7116819
:100C00004FF0FF32E9E700002DE9FF5F15468A4605
:100C10000446DFF8AC80F8440027D8E900103E46CF
:100C2000CDE9001010E03AF816106A4602A800F06C
:100C3000A7FC411C07D02178890603D5E269391841
:100C400091420DD80744761C2078800602D5E069D1
:100C5000B84205DDAE42E6DB3AF816000028E2D1E4
:100C6000A069C01BA0612046FFF78EFCD8E90010E8
:100C7000CDE90010002017E03AF818106A4602A8E3
:100C800000F07EFCB0F1FF3F81460BD000250DF156
:100C9000080B05E0D4E901211BF8050090476D1C05
:100CA0004D45F7D308F10100B0428046E4DB206AED
:100CB000384420622046FFF77DFCBDE8FF9F00001E
:100CC000CA5B00002DE9F0418046D21D22F00702E8
:100CD0000025D2E90002F52915A614D0011E72F1F3
:100CE000000106DA0023D0EB030063EB020211A639
:100CF00008E0D8F800108B0701D50FA602E04907DD
:100D000001D50EA601251146002408F1240704E0B0
:100D100000F04EF830323A55641C50EA0102F7D127
:100D20002B46324621464046BDE8F041FFF7C2BEA1
:100D3000000000002D0000002B000000200000003B
:100D400030B4002100F1240408E002F00705D208C5
:100D5000303542EA4372DB086554491C52EA030508
:100D6000F3D10468002310A2250707D5A40600D4F8
:100D700021B1C46901230DA2641EC46130BCFFF718
:100D800099BE10B5044621461068FFF72DFC0246B7
:100D90002046BDE810400023D2E7D21D22F0070113
:100DA000D1E90023CCE70000000000003000000083
:100DB00030B5B0F10A024FEA900E71F100034EEA2D
:100DC000817EB0EB0E0061EB91014FEA101E4EEAFE
:100DD000017E10EB0E0041EB11114FEA102E4EEA8E
:100DE000016E10EB0E0041EB11214FEA104E4EEA5E
:100DF000014E10EB0E0041EB1141401841F1000192
:100E00004FEAD00040EA41704FEAD10110EB800573
:100E10004FEA810444EA907444EB01046D1944EBF9
:100E20000404521BA3414FF0000348BF0A3200D50F
:100E300030BD401C41F1000130BD70472DE9FF4F2E
:100E40000C461E464FF0FF378BB0D2E90001DDF8AB
:100E500060800A908A46C1F30A5505B93D460021D3
:100E600008464FF00000BAF1000F00F4400005DA28
:100E700000EB80004FF4400101EA50004FEA905926
:100E8000B9F1010F00DDB9460A9850EA4A000ED0C8
:100E900044F61050A5F2FF3545432F14B8F1000F6A
:100EA0001ED07542291E1EDDC9F100021CE0B8F1FA
:100EB000010F4FF0000001D0302103E0F24305E0C4
:100EC0002154401CB042FBDB30460022002121545B
:100ED0000B99C1F80880C1E900200FB0BDE8F08F80
:100EE000BD1B6D1CDEE74A4600DA694206A800F029
:100EF000D9FB06AB93E8070003AB83E80700504635
:100F00000A9900F097FC8DE80700A0F500501F3803
:100F100000900398002D0ADD42F21F014A46084462
:100F2000002303A90390684600F000FF09E0A0F544
:100F300000504A461F38002303A90390684600F07A
:100F40000AFF8DE807000004000C03D04FF0FF30CB
:100F5000410800E01046B8F1000F03D000220092D3
:100F600015461EE0751E05D4FFF722FF303262558C
:100F70006D1EF9D5B3460122084302D000227F1C22
:100F800004E02078302801D100227F1E002A099732
:100F900084D01DE0112D07DAFFF70AFF30326255C9
:100FA0006D1C50EA0102F5D1084302D00098C8B187
:100FB0000EE00021681E05E0235C625C635422544D
:100FC000401E491C8142F7DBAB46A81B401E09901E
:100FD000002004F80B000B98099AC0F80880C0E9BB
:100FE000002B7AE711264FF0000857E72DE9F04F64
:100FF00088460446D21D22F0070191B0D1E90001D4
:10100000CDE90A0102F0D4FF02460B98C00F01D0CF
:101010002D2007E02068810701D52B2002E0202148
:1010200001EAC000032A099001D0072A05DB034624
:101030004146204600F0F6FA0BE12078800601D503
:10104000E06900E00620B8F1650F814606D0B8F1EE
:10105000660F18D0B8F1670F70D131E00020B9F1F8
:10106000110F009001DB112301E009F101030AAA2D
:1010700001A90CA8FFF7E2FEDDE90C70002609F1DA
:101080000105834647E001204B4600904FF00047A2
:101090000AAA01A90CA8FFF7D1FEDDE90DB00C9951
:1010A0005D46002610B909F101000D18B9EB0500E5
:1010B00003D4C0F1FF3609F10105A5EB09002BE0CF
:1010C000B9F1010F01DA4FF001090020B9F1110F58
:1010D0000090484601DD112300E003460AAA01A959
:1010E0000CA8FFF7ABFEDDE90C704D4600268346E9
:1010F000207800070AD4AB4500DA5D4601A8012D2F
:1011000004DD411911F8011C302907D04F4502DADE
:1011100017F1040F04DA012082460FE06D1EEEE79E
:10112000002F02DCED1B3E4403E0781CA84200DDEA
:101130007D1CB81B00F1010A4FF000472078000722
:1011400003D4AA4501DB4FF0FF3A0021B7F1004F6D
:101150000DF143088DF8431024D002202B23002FDB
:1011600001DA7F422D230A21021EA0F1010000DCDA
:101170005FB197FBF1FC97FBF1F201FB1C7C17467A
:101180000CF1300C08F801CDEEE7A8F10100037076
:101190002188090501D5452100E06521A0F101085C
:1011A00000F8011C09980FA9A1EB0807FF1D00B169
:1011B0000120411901EBEA70A1693844081A401E68
:1011C000A0612078C00602D42046FFF7DDF9099817
:1011D00028B1D4E901219047206A401C2062207880
:1011E000C00622D52046FFF7CFF91EE0002E04DB13
:1011F000B34502DD01A8805D00E03020D4E9012183
:101200009047206A401C2062761CAAF101005FEA28
:10121000000A0AD100F002FAC0680168405CD4E913
:1012200001219047206A401C2062281EA5F101057B
:10123000DCDC07E0D4E9012118F8010B9047206AB3
:10124000401C2062381EA7F10107F3DC2046FFF79F
:10125000B1F9032011B041E62DE9F04F04460D46E7
:10126000D21D22F0070089B0D0E9009748463946E0
:1012700002F09EFE0246F80F01D02D2307E0206801
:10128000810701D52B2302E0202101EAC0038DF85C
:1012900020300BB1012000E00020032A824601D05B
:1012A000072A04DB2946204600F0BCF93FE12078FC
:1012B000800601D40D2500E0E569C7F30A560D2D1F
:1012C00049DA00214FEA175B08464FF00000002F73
:1012D00000F4400007DA00EB80004FF4400100EB1F
:1012E000D07001EA60008115012901DD4FF0FF3166
:1012F00000224FEA850CBCF1180F06D31346ACF15F
:1013000018004FF08052C24003E04FF4801323FADC
:101310000CF30CF10C0CBCF1200F04D3ACF1200C3D
:1013200009FA0CF001E007FA0CF000294FF0004830
:1013300001DD18B90FE00ED140450CD319EB0209BD
:101340005F4121B9404502D19F4329EA0209BBEB25
:10135000175F00D0761C2088000502D57B487844B2
:1013600002E07A487844193808AA302302F80A3093
:10137000037C0AF10101002E0AF1020A53546A4665
:1013800002DC4FF0300101E04FF031014FF0010875
:101390008DF8001002D0A6F2FF3603E059EA4701AB
:1013A00000D06B4E002D02DC2178090704D54FF0E8
:1013B00002082E218DF80110C44600210BE0C7F36E
:1013C00003433F01C35C491C6D1E02F80830052928
:1013D00008F1010801DA002DF1DC00210CE000EB3E
:1013E0001973491C1B786D1E082902F808304FEA52
:1013F000091908F1010801DA002DF0DC21688B06DB
:1014000002D516E0A8F10108E04505DD02EB08036E
:1014100013F8013C302BF5D0B8F1000F09DD02EBD9
:10142000080313F8013C2E2B03D1090701D4A8F1BE
:101430000108002D05DD3E2102F808106D1E08F19F
:101440000108407C002E02F8080008F1010804DAC7
:101450002D20764202F8080002E02B2002F8080056
:101460000A214FF47A70864208F101080BDB96FBE3
:10147000F0F3303302F8083096FBF0F308F101087E
:1014800000FB136601E0642E0CDB642096FBF0F396
:10149000303302F8083096FBF0F308F1010800FB46
:1014A000136601E00A2E06DB96FBF1F0303002F8FD
:1014B000080008F1010896FBF1F001FB10603030E4
:1014C00002F80800A16908F1010808EB050202EB27
:1014D0000A00081AA0612078C00602D42046FFF74F
:1014E00053F8216A08AE01EB0A00206204E0D4E957
:1014F000012116F8010B9047BAF1010AF7D22078C2
:10150000C00602D52046FFF73FF86E4609E016F800
:10151000010B3E280FD0D4E901219047206A401CDE
:101520002062B8F10108F2D22046FFF743F809B073
:101530000320BDE8F08F206A2844206203E0D4E94C
:101540000121302090476D1EEBD3F8E79D54000039
:1015500002FCFFFF10B5436913B1AFF3008001E057
:10156000FFF752FB012010BD128800F12401828494
:101570000022C2840122EDE711684FF0FF32E9E753
:1015800070B516460C46054600F040F8036893F81F
:101590000101012806D0FF2C0FD8185D68B1012089
:1015A0002C7070BDD3F807013246214603F20713B1
:1015B00003442846BDE8704018474FF0FF3070BD27
:1015C000754600F0EBF8AE4605006946534620F03C
:1015D0000700854618B020B5FEF732FFBDE8204071
:1015E0004FF000064FF000074FF000084FF0000BDF
:1015F00021F00701AC46ACE8C009ACE8C009ACE892
:10160000C009ACE8C0098D467047000010B500F075
:1016100005F8001D10BD00BFD54D00000048704703
:10162000189701202DE9F0411F4604460326016862
:10163000072A01F4006004DB08B116A505E016A531
:1016400003E008B115A500E015A521F01000206009
:10165000A069C01EA0610FB1401EA0612046FEF728
:1016600093FF4FB1D4E9012138469047206A401CCE
:101670002062C01C206206E0206AFAE7D4E901215A
:1016800015F8010B9047761EF8D22046FEF792FF20
:10169000BDE8F0814E414E006E616E00494E46003D
:1016A000696E66002DE9F047814616468AB03548D6
:1016B00078440DC88DE80D0032487844801C03AC96
:1016C0000DC884E80D0041F69B300844372190FB9B
:1016D000F1F290FBF1F5A5F1800501FB12041B3C32
:1016E00002D56442012000E00020DFF898A0804687
:1016F0000027FA44AAF1BE0A0EE0E0070AD03246FB
:10170000684607EB470101230AEB810100F023FB48
:101710008DE8070064107F1C002CEED1194F7F4428
:10172000AE3F19E0E80715D007EB04100DF1180AD9
:1017300090E80E008AE80E00C068F04201D19819C6
:1017400008903246012306A903A800F004FB03AB6E
:1017500083E807006D10641C002DE3D14FF00103F6
:1017600032466946B8F1000F03A802D000F0DEFA55
:1017700001E000F0F0FAC9E90001C9F808200AB058
:10178000BDE8F087DC51000010B50446AFF30080DF
:101790002046BDE81040FEF7DEBD0000004870475F
:1017A000F8960120704700004FF0013C50F8042BE0
:1017B00051F8043B9A4221D1A2EB0C03934313EA64
:1017C000CC1317D150F8042B51F8043B9A4215D191
:1017D000A2EB0C03934313EACC130BD150F8042B68
:1017E00051F8043B9A4209D1A2EB0C03934313EA4C
:1017F000CC13DBD04FF00000704700BFD01A01BA05
:10180000B1FA81F101F0180122FA01F0CB40C1F1E7
:101810002001DBB2C0B2C01A2CFA01F3D11A9143F5
:1018200011EAC311E6D1704701491820ABBEFEE7AB
:10183000260002005FEA400C08BF91F0000F4FEA5B
:101840008C234FEAC12243EA51514FEA1C5018BF82
:1018500000F5F0404FEA300018BF41F000415FEA68
:101860006C5C00F02980BCF1FF3F08BF40F0804075
:101870007047130C06BF12044FF0100C4FF0000C11
:10188000130E04BF12020CF1080C130F04BF120157
:101890000CF1040C930F04BF92000CF1020CD30F57
:1018A00004BF52000CF1010C11464FF00002A0F1F0
:1018B0001F00A0EB0C00704711F0004F08BF7047ED
:1018C00031F000413FF4D5AF0B0C06BF09044FF0D7
:1018D000100C4FF0000C0B0E04BF09020CF1080CA9
:1018E0000B0F04BF09010CF1040C8B0F04BF89001E
:1018F0000CF1020CCB0F04BF49000CF1010CCCF130
:101900002003A0EB0C0022FA03F302FA0CF241EAE6
:10191000030100F10100704720F07F4C80EA0300D2
:1019200023F07F47ACEB070303F57C5300F0004046
:1019300003F1FF032DE980494FEA154B09B44FEA43
:10194000144325EA0B4E24EA03480FF2042606EB63
:10195000132749083E785FEA320203FB0667C7F5A2
:10196000000707FB06F64FEA54374FEAD64606F162
:10197000020607FB066CCCF1005C4FEA1C472CEA20
:10198000074C07FB06F40CFB06F504EB15464FEA83
:10199000961634BF00204FF000404FEAD13706FBC7
:1019A00007FC4FEA1C4C0CFB0BF7D21B03FB0CF79C
:1019B00061EB07010CFB0EF7B0EB074072EB17422F
:1019C0000CFB08F734BFA2EB0742B2EB074261EB16
:1019D00017414FEA0C444FEA910706FB07FC4FEA18
:1019E0001C4C0CFB0BF7B0EBC74072EB573203FB00
:1019F0000CF734BFA2EBC742B2EBC74261EB5731E1
:101A00000CFB0EF7B0EBC70072EB57720CFB08F73C
:101A100034BFA2EBC702B2EBC70261EB5771039F61
:101A20004FEA816141EA921104EBCC044FEAD137CD
:101A30004FEA826206FB07FC42EA90124FEA80609E
:101A40004FEA1C4C0CFB0BF7D21B03FB0CF761EBB2
:101A500007010CFB0EF7B0EB074072EB17420CFBD3
:101A600008F734BFA2EB0742B2EB074261EB174124
:101A70004FEA8C554FEA910704EB9C2406FB07FCC8
:101A80004FEA1C4C0CFB0BF7B0EBC74072EB573224
:101A900003FB0CF734BFA2EBC742B2EBC74261EBCA
:101AA00057310CFB0EF7B0EBC70072EB57720CFB13
:101AB00008F734BFA2EBC702B2EBC70261EB577164
:101AC00015EB4C254FEA816141EA92114FEA82629F
:101AD0004FEAD13742EA901206FB07FC44F10004BA
:101AE0004FEA80604FEA1C4C0CFB0BF7D21B03FB48
:101AF0000CF761EB07010CFB0EF7B0EB074072EB44
:101B000017420CFB08F734BFA2EB0742B2EB0742C7
:101B100061EB174115EB1C154FEA813141EA924107
:101B20004FEA823242EA90424FEA80304FEA0C7626
:101B300044F1000448EA03434EEA0B484FF0000E1C
:101B4000B2EB080C71EB030724BF624639464EEB3B
:101B50000E0E4FF0000B0018524149414BEB0B0B9E
:101B6000B2EB080C71EB03077BF1000B24BF62465C
:101B700039464EEB0E0E4FF0000B00185241494112
:101B80004BEB0B0BB2EB080C71EB03077BF1000B7B
:101B900024BF624639464EEB0E0E51EA020718BFCB
:101BA00046F0010616EB0E7655F1000254F10001E5
:101BB00003D5BDE88901BDE80088BDE88901BDE81D
:101BC0000048B619524141EB0101A3F101037047EE
:101BD00080807F7E7D7C7B7A79787776767574736A
:101BE000727171706F6E6E6D6C6C6B6A6A69686829
:101BF000676666656464636362616160605F5F5EBF
:101C00005E5D5D5C5C5B5B5A5A5959585857575634
:101C10005655555554545353525252515150505099
:101C20004F4F4F4E4E4D4D4D4C4C4C4B4B4B4A4AEB
:101C30004A4949494848484747474746464645452F
:101C40004544444444434343434242424241414168
:101C5000002B9C4630D477002BD01CB54FEA3707B9
:101C600003B44FF010004FF01001BAF1000F06D08E
:101C7000BCF1000FDCBF40F0080040F008014FF05D
:101C800000000FBCBDE810400BF1010BBBF1010FD0
:101C900008BF5FEA170722BF12F1010211F101012B
:101CA0004FF0004143F1000300F0004043EA000020
:101CB0007047F9D35708D0E746EA064613F1400FBC
:101CC0004FEA16461FDD13F1200FDFBF16430A4609
:101CD000002120335B42BED0C3F1200746EA06460E
:101CE00002FA07F74FEA164646EA0706C3F120074D
:101CF00022FA03F201FA07F721FA03F14FF0000389
:101D000042EA0702A7E746EA020646EA06464FEA23
:101D1000164646EA0106BCBF46EA0646360C4FF0B8
:101D200000034FF000024FF0000194E72DE9804CD2
:101D30009A46934670B491E8380007C831EA400CDF
:101D400048BF34EA430C03D5FFF7E6FDFFF780FFF9
:101D5000F0BCBDE8008C2DE9804C9A46934670B4E7
:101D600091E8380007C810F0804F08BF13F0804F8B
:101D700003D100F005F8FFF76BFFF0BCBDE8008C65
:101D800020F07F4780EA030023F07F4C07EB0C0331
:101D9000A3F57C5300F00040A3F1FE0392F0000F86
:101DA00000F0B38095F0000F00F077802DE9014935
:101DB0004FEA11404FEA144621EA004800FB06FCB6
:101DC00024EA064708FB06F607FB08F800FB07F7BE
:101DD00018EB06484CEB164C4FEA124B18EB074831
:101DE0004FEA15464CEB174022EA0B4E0BFB06FC64
:101DF00025EA06470EFB06F607FB0EFE0BFB07F770
:101E00001EEB064E4CEB164C4FF000061EEB074E39
:101E10004CEB174B18EB0B0840F1000018EB0E0BC6
:101E200058EB000840F100008F1A4FF000013CBF52
:101E3000C943661B14BFB5EB040C00213CBFC9436A
:101E4000F61B4FEA17444EEA8E0E27EA04454FEA86
:101E50001C4704FB07622CEA074C05FB07F70CFB49
:101E600005F604FB0CFC16EB074642EB174216EB9B
:101E70000C4642EB1C421BEB060658EB02024141AA
:101E800046EA9E0601D5BDE80189B619524141EBEB
:101E90000101A3F10103BDE801894FEA14454FEAAE
:101EA000114724EA054621EA074C05FB07F406FB27
:101EB00007F70CFB06F105FB0CFC11EB074144EBAB
:101EC00017444FEA124711EB0C4144EB1C4422EA41
:101ED000074C05FB07F206FB07F70CFB06F605FBB4
:101EE0000CFC16EB074642EB174216EB0C4642EB96
:101EF0001C456A1854F1000148BF7047B619524199
:101F000041EB0101A3F10103704795F0000F37D0B9
:101F10004FEA11424FEA144721EA024624EA074CED
:101F200002FB07F106FB07F70CFB06F402FB0CFCB7
:101F300014EB074441EB17414FEA154714EB0C44EF
:101F400041EB1C4125EA074C02FB07F506FB07F7AE
:101F50000CFB06F602FB0CFC16EB074645EB17459F
:101F600016EB0C4645EB1C42121951F1000148BF1B
:101F70007047B619524141EB0101A3F101037047CB
:101F80004FEA14454FEA114724EA054621EA074C77
:101F900005FB07F106FB07F70CFB06F24FF0000606
:101FA00005FB0CFC12EB074241EB174112EB0C4214
:101FB00051EB1C4148BF7047921841EB0101A3F15E
:101FC0000103704707E00321022000F08BFA4FF471
:101FD000FA7002F0D7FFF6E700BFFEE718B501463A
:101FE000FF20002200920A128DF80020CAB28DF85C
:101FF0000120002211E01DF802305840002309E0C2
:1020000000F080041CB1312484EA400400E0440064
:10201000E0B25B1C082BF3DB521C022AEBDB18BD81
:10202000016821F00101016000210160016181600E
:1020300041606749884208D16549A031096841F08B
:102040000F010246C2F8A010C0E061491431884275
:1020500008D15F49A031096841F0F0015C4AC2F83B
:10206000A010B3E05A492831884208D15849A0311C
:10207000096841F47061564AC2F8A010A6E05449BC
:102080003C31884208D15249A031096841F470417D
:102090004F4AC2F8A01099E04D495031884208D10A
:1020A0004B49A031096841F47021494AC2F8A01097
:1020B0008CE047496431884208D14549A03109681C
:1020C00041F47001424AC2F8A0107FE040497831E3
:1020D000884208D13E49A031096841F070613C4A0C
:1020E000C2F8A01072E03A498C31884208D13849D0
:1020F000A031096841F07041354AC2F8A01065E08E
:102100003449884208D13349A031096841F00F01B0
:10211000304AA032116059E02E491431884208D16A
:102120002C49A031096841F0F0012A4AA03211601F
:102130004CE028492831884208D12649A031096855
:1021400041F47061234AA03211603FE021493C31E3
:10215000884208D11F49A031096841F470411D4AE5
:10216000A032116032E01B495031884208D1194930
:10217000A031096841F47021164AA032116025E0AF
:1021800014496431884208D11249A031096841F4E8
:102190007001104AA032116018E00E49783188426F
:1021A00008D10C49A031096841F07061094AA03298
:1021B00011600BE007498C31884207D10549A031F5
:1021C000096841F07041034AA03211607047000075
:1021D000000002400004024021B1026842F0010206
:1021E000026003E0026822F00102026070470146CB
:1021F000086980B27047000010B50268144B1A409D
:102200000C6A8B6823430C6923434C6923438C6914
:102210002343CC6923434C6A23438C6A23430C6BCE
:1022200023434C6B23431A430260CB6803610B6862
:1022300083604B684360074B984203D2064CCB6ADD
:10224000236003E0034CA834CB6A236010BD000078
:102250000F00F8FF00040240A80002400AB1C86065
:1022600001E00023CB6070470161704700210160ED
:1022700041608160C160016141618161C161016250
:10228000416281620121C1620021016341637047A3
:102290000748006840F08070054908600020054943
:1022A00048600846006840F0010008607047000080
:1022B000FCED00E0001000E070470000F0B50346C0
:1022C0001F2A09D90F4F3F6827F4E03022F000475A
:1022D00038430C4F386013E08E088F07FC0E0A4F0E
:1022E00007EB832505F10C0757F826001F27A740A9
:1022F000B84302FA04F7384305F10C0747F8260003
:10230000F0BD00000008014000C002400FB400B55D
:102310008DB00E980C9000F025FB684600F068F830
:10232000182106A8FEF79CFB0F98069010980790BE
:10233000119808901298182206A90B906846FEF78B
:1023400033FB69460E9800F003F80DB05DF814FBFE
:10235000F0B50246002346E001279F40D1F800C0B7
:102360000CEA0705002D3DD09E089F07FC0E02F1E8
:102370000C0757F826001F27A740B8434F69A7400E
:10238000384302F10C0747F8260090680F7907F0F0
:102390001007102F01D1284300E0A84390605C0093
:1023A00010680327A740B8430F7907F00307A74039
:1023B0003843106050680327A740B8438F68A74090
:1023C00038435060106A01279F40B843CF689F4050
:1023D00038431062D0690327A740B8430F69A7406C
:1023E0003843D0615B1C0F68DF40002FB4D1F0BDD3
:1023F00000210160C1604160416181600121016192
:1024000070470246D36A0B400BB1012000E0002068
:102410007047026B4A40026370470AB1416200E0B4
:10242000816270472DE9F04106460C4617461D466D
:10243000A1B23A463046FFF7F0FF284601F0E0FD32
:10244000BDE8F08100BFFEE72DED048B84B000F005
:10245000EDFD9FED130A8DED030A9FED110A8DED41
:10246000020A1BE002A903A800F0AAFC90B102989E
:1024700003F0D8FF41EC190B039803F0D3FF41ECB4
:10248000180B8DED009B53EC182B06A10E4801F0A4
:102490008FFC03E00DA10C4801F08AFCE2E700008C
:1024A0000000000054656D703A20252E316620A191
:1024B000E62C2048756D693A20252E3166202525A9
:1024C00052480D0A00000000002801405265616476
:1024D0002054656D7048756D69204572726F722168
:1024E0000D0A000070B504460D469DB1012D02D0C5
:1024F000032D2CD11DE004EB8402164B03EB82026A
:10250000928891B204EB840253F822000022FFF774
:1025100084FF1CE004EB84020E4B03EB82029288E2
:1025200091B204EB840253F822000122FFF775FFF9
:102530000DE004EB8402074B03EB8202928891B218
:1025400004EB840253F82200FFF763FF00BF00BFD3
:1025500070BD0000C481012000B591B0142235493E
:102560000CA8FEF721FA14220CA93348FEF71CFA36
:1025700014223049143107A8FEF716FA142207A9CD
:102580002D481430FEF710FA14222A49283102A8E7
:10259000FEF70AFA142202A927482830FEF704FAA7
:1025A0000121084600F0C2F8244A04210120FFF767
:1025B00085FE2148006900901F480FC8FFF7A6FE5E
:1025C0001D48406A00901C4814300FC8FFF79EFE5B
:1025D0001948806B0090184828300FC8FFF796FE06
:1025E00000210846FFF77EFF00210120FFF77AFF58
:1025F00000210220FFF776FF03210020FFF772FF82
:1026000003210120FFF76EFF03210220FFF76AFF7D
:10261000C82001F0F5FC03210020FFF763FF032130
:102620000120FFF75FFF03210220FFF75BFF11B0DE
:1026300000BD000028650008C48101200040008022
:1026400000BFFEE77047000070B50F22C47814B3D6
:10265000164C246804F4E064C4F5E064210AC1F176
:10266000040404F00703CA40447804FA03F18478B0
:102670001440214309010E4C0678A155047804F05A
:102680001F050124AC4005786D11AD0005F1E02572
:10269000C5F8004109E0047804F01F050124AC40AE
:1026A000044D0678761145F8264070BD0CED00E02B
:1026B00000E400E080E100E002490143024A1160C9
:1026C000704700000000FA050CED00E029B1064A51
:1026D000D26B0243044BDA6304E0034AD26B8243B9
:1026E000014BDA63704700000010024029B1064A2E
:1026F00092690243044B9A6104E0034A926982435F
:10270000014B9A61704700000010024029B1064A4F
:10271000D2690243044BDA6104E0034AD26982437E
:10272000014BDA61704700000010024029B1064AEF
:10273000126A0243044B1A6204E0034A126A82439B
:10274000014B1A6270470000001002402DE9F04F63
:1027500091B004460020109076A2D2E90030D2E970
:102760000212CDE90C30CDE90E1276A30FCB08ADE5
:102770000FC5784BD3E90020D3E9021305AD0BC593
:1027800004927548806C20F07C487348C06C4FEA16
:1027900090697148006DC0F3806BBBF1000F15D1DB
:1027A0006E484FEA9831A0FB011009F101020023A5
:1027B000CDE9001008460199FDF754FE04220023DC
:1027C000CDE90201FDF74EFE064614E063484FEAEC
:1027D0009831A0FB011009F101020023CDE900109E
:1027E00008460199FDF73EFE04220023CDE90201CF
:1027F000FDF738FE0646A6615748406800F0407570
:10280000B5F1807F02D1554820601EE015B95348CC
:1028100020601AE0B5F1007F15D14F48006C00F43C
:102820004010B0F5801F01D126600EE04A48006CD0
:1028300000F44010B0F5401F02D14948206004E088
:102840000120109001E045482060109801282DD10A
:1028500041484068C0F3C500042101EB40083E48F0
:10286000006CC0F3014000F101093B48006CC0F36B
:10287000814A3948406800F0010BBBF1000F07D1D5
:1028800035484068C0F38001344820FA01F606E07C
:1028900031484068C0F34001304820FA01F6B6FBE9
:1028A000F9F000FB08F020FA0AF626602A48406892
:1028B00000F470252D0C082D00D200250CA8475DD2
:1028C0002068F84060602448406800F460656D0A44
:1028D0000CA8475D6068F840A0601F48406800F49D
:1028E000E0452D0B0CA8475D6068F840E0601A4891
:1028F000806800F00F0508A8475D6068B0FBF7F03E
:1029000060611548806800F070052D0904A830F852
:1029100015701148806800F08000802804D11048AC
:10292000B0FBF7F0206102E0B6FBF7F0206111B0D8
:10293000BDE8F08F0000000001020304010203045F
:10294000060708090102030406080A0C10202020CB
:1029500020202020186500080010024000127A0094
:10296000001C4E0E01B599490098884204D10121FE
:102970000846FFF7ABFE27E195490098884204D14D
:1029800001210220FFF7A2FE1EE192490098884231
:1029900004D101210420FFF799FE15E18E4900982A
:1029A000884204D101210820FFF790FE0CE18B49F9
:1029B0000098884204D101211020FFF787FE03E12F
:1029C00087490098884204D101212020FFF77EFE2C
:1029D000FAE084490098884204D101214020FFF7A1
:1029E00075FEF1E080490098884204D101218020E1
:1029F000FFF76CFEE8E07D490098884204D1012190
:102A00002020FFF793FEDFE079490098884204D147
:102A100001210420FFF77AFED6E07649009888422B
:102A200004D101210820FFF771FECDE07249009822
:102A3000884204D101218803FFF778FEC4E06F4982
:102A40000098884204D101212020FFF75FFEBBE0FF
:102A50006B490098884204D101214020FFF766FEAF
:102A6000B2E068490098884204D101218020FFF734
:102A70005DFEA9E064490098884204D1012110203C
:102A8000FFF744FEA0E061490098884204D101218B
:102A90000015FFF73BFE97E05D490098884204D19E
:102AA0000121C014FFF732FE8EE05A490098884297
:102AB00004D101218014FFF729FE85E056490098D2
:102AC000884204D101214014FFF720FE7CE05349E5
:102AD0000098884204D101210014FFF717FE73E02B
:102AE0004F490098884204D10121C013FFF70EFE20
:102AF0006AE04C490098884204D101210804FFF79C
:102B000005FE61E048490098884204D10121801502
:102B1000FFF70CFE58E045490098884204D1012196
:102B20004015FFF703FE4FE041490098884204D169
:102B300001210015FFF7FAFD46E03E490098884262
:102B400004D101218805FFF7E1FD3DE00098B0F1D7
:102B5000402F04D10121C805FFF7D8FD34E03649E4
:102B60000098884204D101214015FFF7AFFD2BE00A
:102B700032490098884204D101210015FFF7A6FDD3
:102B800022E02F490098884204D10121C014FFF7A8
:102B90009DFD19E02B490098884204D10121801441
:102BA000FFF794FD10E028490098884204D10121E4
:102BB0008020FFF79BFD07E024490098884203D15D
:102BC00001218015FFF792FD08BD000000C0024002
:102BD00000C4024000C8024000CC024000D00240C5
:102BE00000D4024000D8024000DC0240001C01403A
:102BF000000C004000100040002801400068004028
:102C0000002001400024014000140040002C00403E
:102C1000003000400034004000380040005C0040BC
:102C20000060004000640040000C014000100140C2
:102C300000140140003C004000B0024000B40240DB
:102C400000B8024000BC0240000002400004024004
:102C500070B505460C46002C4FD15248854210D124
:102C60000CB9012000E000200246012340214E481B
:102C7000FFF7D8FB4D4908684FF0FF3102F09EFF87
:102C80008EE04B48854210D10CB9012000E00020B5
:102C90000246012380214448FFF7C4FB43494868AA
:102CA0004FF0FF3102F08AFF7AE04248854210D1AE
:102CB0000CB9012000E000200246012359023E48E1
:102CC000FFF7B0FB394988684FF0FF3102F076FF1B
:102CD00066E03A48854263D10CB9012000E000204B
:102CE0000246012319033448FFF79CFB2F49C868AB
:102CF0004FF0FF3102F062FF52E02A48854211D1C5
:102D00000CB9012000E000200246012340212648A2
:102D1000FFF788FB254900231A460868194602F088
:102D2000B3FC3DE02248854211D10CB9012000E0FE
:102D300000200246012380211B48FFF773FB1B493B
:102D400000231A464868194602F09EFC28E01948FC
:102D5000854211D10CB9012000E000200246012378
:102D600059021548FFF75EFB104900231A46886890
:102D7000194602F089FC13E01048854210D10CB9C5
:102D8000012000E000200246012319030A48FFF752
:102D900049FB064900231A46C868194602F074FC2C
:102DA00070BD0000001C014000C00240D49601200C
:102DB000002401400028014000D0024000200140D2
:102DC000FEB504460D460020019002900026002723
:102DD000062001ABFD2244210090002000F080F984
:102DE00028B127A12B4800F0E3FF0020FEBD9DF88D
:102DF00005009DF8041040EA01269DF808009DF8A2
:102E0000071040EA01273046FFF7E8F89DF8061062
:102E1000884206D13846FFF7E1F89DF8091088424C
:102E200005D01DA11B4800F0C3FF0020DEE78CB1D8
:102E300000EE106AB8EE400ADFED1C0A60EE200AD0
:102E40009FED1B1A80EE810ADFED1A0A30EE600A50
:102E500084ED000A8DB100EE107AB8EE400ADFED85
:102E6000160A60EE200A9FED121A80EE810AF1EE3A
:102E7000080A30EE600A85ED000A0120B6E700007E
:102E80004932432052656164204661696C65642162
:102E90000D0A000000280140446174612043524340
:102EA000204572726F72210D0A00000000002F434E
:102EB00000FF7F47000034420000FA420FE008495B
:102EC00088684FF0FF3102F079FE012807D10548EC
:102ED0008368054805A18268074800F089FFEEE78E
:102EE000C096012078650008646500085B25735D65
:102EF00025730D0A000000000028014010B50446AB
:102F0000064A02EB0412128991B2044A02EB04123F
:102F100010680122FFF781FA10BD0000E896012039
:102F200010B50446064A02EB0412128991B2044A13
:102F300002EB041210680022FFF76FFA10BD0000C8
:102F4000E896012010B50446064A02EB0412928965
:102F500091B2044A02EB041250680122FFF75DFAB5
:102F600010BD0000E896012010B586B00446002090
:102F70000190022002900320049000200390074853
:102F800000EB0410C0680090044901EB041148688C
:102F90006946FFF7DDF906B010BD0000E896012094
:102FA00010B50446064A02EB0412928991B2044A13
:102FB00002EB041250680022FFF72FFA10BD000048
:102FC000E896012010B586B0044601200190022049
:102FD00002900320049000200390074800EB0410A7
:102FE000C0680090044901EB041148686946FFF786
:102FF000AFF906B010BD0000E896012070B5044698
:103000002046FFF7B1FF084A02EB0412928991B201
:10301000054A02EB04125068FFF7F3F90546204613
:10302000FFF7D0FF284670BDE89601201FB5084B7A
:10303000D3E901021968DB6801AC0DC400910548B1
:103040009DE81E001EC010380FC800F005F81FBD17
:1030500098670008E89601200FB593B01398129076
:10306000FFF780FC14981190FFF77CFC14221B4999
:103070000CA8FDF799FC13980C90159814220CA934
:103080000D9002A8FDF790FC0698009002A80FC8CA
:10309000FFF73CF914221149143107A8FDF784FC0D
:1030A000149807901698142207A9089002A8FDF713
:1030B0007BFC0698009002A80FC8FFF727F9159A25
:1030C00091B201221398FFF7A8F9169A91B2012242
:1030D0001498FFF7A2F917B000BD00007067000850
:1030E0002DE9F04781460C4617461D46DDF8208045
:1030F000484600F0C3F86006010E484600F084F828
:10310000484600F0E2F828B1484600F0CCF801202B
:10311000BDE8F0873946484600F076F8484600F0AA
:10312000D4F820B1484600F0BEF80120F0E742F2A2
:10313000107000F0DEF8484600F0A0F8012000EB27
:103140004400C1B2484600F05FF8484600F0BDF8C0
:1031500020B1484600F0A7F80120D9E7002607E093
:10316000484600F017F8A855484600F035F8761C98
:10317000A8F10100B042F3D8484600F00BF8A8F1DE
:1031800001016854484600F064F8484600F08BF8A6
:103190000020BDE770B504460025E0B2FFF7E4FE6D
:1031A000002615E0E0B2FFF7A9FE052000F0A1F827
:1031B0006806050EE0B2FFF721FF08B145F00105F2
:1031C000E0B2FFF7ADFE022000F093F8701CC6B22B
:1031D000082EE7DB284670BD10B50446E0B2FFF7C5
:1031E000DFFE022000F085F8E0B2FFF787FE052041
:1031F00000F07FF8E0B2FFF793FE022000F079F8CC
:10320000E0B2FFF79FFE10BD70B504460D460026E4
:103210001CE005F0800018B1E0B2FFF793FE02E079
:10322000E0B2FFF7BDFE6806050E022000F061F86F
:10323000E0B2FFF763FE052000F05BF8E0B2FFF7B5
:103240006FFE022000F055F8701CC6B2082EE0DBBD
:1032500070BD10B50446E0B2FFF774FE022000F026
:1032600048F8E0B2FFF74AFE052000F042F8E0B26D
:10327000FFF756FE022000F03CF810BD10B50446E2
:103280002046FFF75FFE2046FFF738FE052000F0DE
:1032900030F82046FFF784FE052000F02AF820468B
:1032A000FFF73EFE10BD10B504462046FFF778FE3E
:1032B0002046FFF723FE052000F01BF82046FFF70D
:1032C00041FE052000F015F810BD70B50446E0B2CF
:1032D000FFF714FE052000F00CF8E0B2FFF78EFEB9
:1032E0000546E0B2FFF71CFE022000F002F8284677
:1032F00070BD10B50446204600F079FE10BD0000F8
:1033000030B50146214BDB6943F001031F4CE361FB
:10331000A304186820F43870084318601B6843F051
:103320001003A4042360002200E0521CB2F5FA6FDF
:10333000FBD300BF4FF080435B6803F00403002B16
:10334000F8D100BF00BF124C246844F08074104DC7
:103350002C6000240F4D6C602C46246844F001045E
:103360002C6000BF2C4664680B4D631900BF094CEC
:1033700064689C42FBD300BF054C246824F0807431
:10338000034D2C6000BF00BF30BD000000100240A4
:10339000FCED00E0001000E080A903001EB52DA4A4
:1033A0001CCC8DE81C002E4A106820F0070040F06D
:1033B000050010602B4A52682A4B5A601A46526820
:1033C00042F480425A601A46526842F400625A60DF
:1033D0001A465068116C6FF30800234A114000BF71
:1033E00040F0680000F4FC72502A03D846F24032E4
:1033F00011430AE000F4FC72902A03D846F24072AE
:10340000114302E046F64042114300BF9DF80120FF
:1034100041EA8241134A50601164126842F001028D
:10342000104B1A6000BF0F4A126802F00202002A15
:10343000F9D00C4A506820F0406040F000605060C5
:1034400000BF084A526802F04072B2F1007FF8D122
:103450001EBD000000000101020202020303000081
:1034600000200240001002400F80F0FF1CB525E054
:1034700001F062FC1248012100238022CDE90010F6
:1034800010A1134802F0BEFC124801210023802243
:10349000CDE9001010A1134802F0B4FC124801213C
:1034A00000238022CDE900100BA1104802F0AAFCF5
:1034B0000F48006801F094FD01F068FCD8E70000B7
:1034C000040000204272656174685F5461736B0090
:1034D000C51F000808000020526563765F546173C1
:1034E0006B000000BD2E00080C00002049240008DD
:1034F0000000002010B500BF502080F31188BFF3FA
:103500004F8FBFF36F8F00BF02F0C2FC18B14FF0B6
:1035100080500449086000BF002080F3118800BF7C
:1035200010BD000004ED00E010B52048006840F434
:1035300070001E4908601E48006840F004001C49E5
:103540000860084640681B49084019494860084619
:10355000006820F0D1000860084640686FF308005A
:1035600048600846006C20F47C1008644FF4E0408A
:1035700088607120C86010480861002008630F4807
:10358000006840F010000D4908600846006820F00F
:1035900080000860FFF702FF4FF0006003498039A8
:1035A00008608014FFF7ACFE10BD000088ED00E05D
:1035B00000100240FF01F0330000FF010020024034
:1035C00010B5AAB0142235491DA8FDF7EDF9142253
:1035D0003249143118A8FDF7E7F920222F49283184
:1035E00022A8FDF7E1F91DA8239018A8202222A9FE
:1035F00024902B48FDF7D8F9284B48330FCB149073
:1036000015911692179326496039096E14A81491E2
:10361000244914AA1CCA30311CC1179A3C39CA6308
:103620001F486038D0E91D23016FC06F8DE80E0080
:1036300003901B48603860300FC800F023FA194A25
:10364000916B506BFDF7EAF91422144958310FA819
:10365000FDF7AAF914220FA90AA8FDF7A5F90E98FB
:1036600000900AA80FC8FEF751FE02230022DDE9F0
:103670000A01FEF7D7FE14220BA105A8FDF794F965
:1036800005A8FDF72DF90446054960392246086E64
:1036900005A900F003FC2AB010BD0000D0660008A8
:1036A00060820120808201205B52454144595D5275
:1036B000533438355F340D0A0000000010B5032084
:1036C00000F08CFA10BD000010B5AAB014223549E4
:1036D0001DA8FDF769F914223249143118A8FDF725
:1036E00063F920222F49283122A8FDF75DF91DA892
:1036F000239018A8202222A924902B48FDF754F9E2
:10370000284B48330FCB14901591169217932649E6
:103710002039096A14A81491244914AA1CCA10312A
:103720001CC1179A1C39CA611F482038D0E90D23E3
:10373000016BC06B8DE80E0003901B4820382030D1
:103740000FC800F09FF9194A91695069FDF766F9B1
:103750001422144958310FA8FDF726F914220FA995
:103760000AA8FDF721F90E9800900AA80FC8FEF7E5
:10377000CDFD02230022DDE90A01FEF753FE1422EB
:103780000BA105A8FDF710F905A8FDF7A9F8044657
:10379000054920392246086A05A900F07FFB2AB0B6
:1037A00010BD0000F8650008208201208082012001
:1037B0005B52454144595D52533438355F320D0AEE
:1037C0000000000010B5012000F008FA10BD000054
:1037D00010B5AAB0142231491DA8FDF7E5F814224E
:1037E0002E49143118A8FDF7DFF820222B49283183
:1037F00022A8FDF7D9F81DA8239018A8202222A9F5
:1038000024902748FDF7D0F8244B48330FCB149071
:103810001591169217932249096814A81491214909
:1038200014AA1CCA0A604B608C6017991D4AD160AB
:103830001B4B10330FCB8DE80F0019480FC800F059
:1038400021F9184A91685068FDF7E8F814221349E5
:1038500058310FA8FDF7A8F814220FA90AA8FDF700
:10386000A3F80E9800900AA80FC8FEF74FFD022398
:103870000022DDE90A01FEF7D5FD14220AA105A800
:10388000FDF792F805A8FDF72BF8044604492246F7
:10389000086805A900F002FB2AB010BD8C6500087D
:1038A00000820120808201205B52454144595D52D3
:1038B000533438355F310D0A0000000010B5002088
:1038C00000F08CF910BD000010B5AAB014223249E6
:1038D0001DA8FDF769F814222F49143118A8FDF727
:1038E00063F820222C49283122A8FDF75DF81DA895
:1038F000239018A8202222A924902848FDF754F8E4
:10390000254B48330FCB14901591169217932349EA
:103910004039096C14A81491214914AA1CCA2031F9
:103920001CC1179A2C39CA621C484038D0E91523AB
:10393000016DC06D8DE80E0003901848403840308E
:103940000FC800F09FF8164A916A506AFDF766F8B2
:103950001422114958310FA8FDF726F814220FA997
:103960000AA8FDF721F80E9800900AA80FC8FEF7E4
:10397000CDFC14220BA105A8FDF716F805A8FCF74D
:10398000AFFF0446054940392246086C05A900F0FE
:1039900085FA2AB010BD000064660008408201204C
:1039A000808201205B52454144595D525334383581
:1039B0005F330D0A0000000010B5022000F00EF980
:1039C00010BD01F460220AB1C16003E041F460223D
:1039D000D243C260704730B50346184621F07044A8
:1039E00001F0805505B10AE001F000550DB1001D50
:1039F00005E001F080450DB1083000E01C301AB13F
:103A000005682543056002E00568A543056030BDF3
:103A100021B1026842F00102026003E0026822F074
:103A20000102026070471AB183680B43836002E0B1
:103A300083688B43836070470246D3680B400BB1A9
:103A4000012000E00020704710B5024621F07043CD
:103A500001F0805414B1146823400DE001F00054CB
:103A600014B15468234007E001F0804414B1946815
:103A7000234001E0D46923400BB1012000E0002085
:103A800010BD00000FB400B5ADB0524800682C90D6
:103A90002C98FEF767FF309800682B90FEF762FFC6
:103AA0002F9800682A90FEF75DFF2E982990FEF768
:103AB00059FF17A8FEF79CFC18224649091D23A8A8
:103AC000FCF772FF30984068239030980069182204
:103AD00023A9289017A8FCF767FF3099086817A951
:103AE000FEF736FC18223B491C311DA8FCF75CFF91
:103AF0002F9840681D902F98006918221DA92290C8
:103B000017A8FCF751FF2F99086817A9FEF720FCAA
:103B10002E9800F00FFAC0B28DF8580006208DF8EC
:103B2000590000208DF85A0001208DF85B0016A87E
:103B3000FEF78AFD3298FEF773FA08A8FEF796FBA7
:103B40002E98103008903398099000200A903498ED
:103B50000B9000200C9080200D9000200E900F9074
:103B600010904FF4405011900020129008A9329804
:103B7000FEF742FB012232993598FEF76FFB01A850
:103B800000F0B1F931980190002002900390049068
:103B9000069007900620059001A92E9800F08CF859
:103BA00001220D492E98FFF716FF40212E98FFF7AE
:103BB00008FF012220212E98FFF735FF01213298BE
:103BC000FEF70AFB01212E98FFF722FF2DB05DF8CA
:103BD00014FB00003C6700080001001038B50446E3
:103BE000304901EB041108684021FFF725FF002848
:103BF00057D02C4901EB041108682B49FFF724FF2B
:103C000000284ED0274800EB04100068C068254803
:103C100000EB041000680069244901EB44110869B5
:103C2000FEF7E5FA1F4901EB04118968081A1D49DE
:103C300001EB0411C86000201A4901EB0411496826
:103C4000184A02EB0412D2688854184901EB441157
:103C500008690021FEF7C0FA124A02EB0412128929
:103C600091B2124A02EB44121069FEF7FDFA0F49B5
:103C700001EB441108690121FEF7AEFA0020009023
:103C80000B4951F82400694601F062FE009838B1F2
:103C90004FF0805007490860BFF34F8FBFF36F8F1D
:103CA00000BF38BD80820120000100100082012089
:103CB000C096012004ED00E02DE9F04788B00546EC
:103CC0000F462E466C6824F06004B86804436C60AC
:103CD0002C6832480440F96878680843B969084399
:103CE0003969084304432C60AC6824F00504786902
:103CF0000443AC6001A8FEF729FD2948864208D09C
:103D00002848864205D02848864202D02748864265
:103D100002D1DDF8109001E0DDF80C90286800F089
:103D2000806048B94FEA990000EBC00101EB001038
:103D30003968B0FBF1FA08E04FEA590000EBC00126
:103D400001EB00103968B0FBF1FA6420BAFBF0F027
:103D500004012009642101FB10A8286800F080609C
:103D600078B1322000EBC800B0FBF1F000F00F0892
:103D70000120B0EBD80F01D110340BE044EA080465
:103D800008E0322000EB08106421B0FBF1F000F0F5
:103D90001F0004446C6108B0BDE8F087C1FFFFFB61
:103DA000001C014000280140002001400024014087
:103DB0000FB430B5ADF2044D04460DF583600090AC
:103DC0004FF4806101A8009BDDF81424FCF7C2FBCE
:103DD0000020009001A8FCF783FD05462A4601A9B2
:103DE000204600F05BF80DF2044D30BC5DF814FB8A
:103DF0000FB47CB5064608A80190019800900021F8
:103E00000846009B079AFCF7A5FB0446002000909B
:103E1000CCB1601C00F042FE054675B1611C28461D
:103E2000019B079AFCF796FB22462946304600F094
:103E300035F8284600F0C8FF04E01B2207A13046F1
:103E400000F02CF804E018220BA1304600F026F810
:103E5000002001907CBC5DF814FB00004D656D6F87
:103E6000727920616C6C6F636174696F6E2066613A
:103E7000696C6564210D0A00496E76616C69642085
:103E8000666F726D617420737472696E67210D0ABA
:103E900000000000C1F30802026170472DE9F04103
:103EA00007460D46164600213846FEF7D1FE00248F
:103EB00011E04FF480713846FFF783FD295D3846E5
:103EC000FFF7E8FF00BF4FF480713846FFF7B4FDFD
:103ED0000028F8D0641CB442EBD301213846FEF729
:103EE000B7FEBDE8F0814FF416510160002141603A
:103EF0008160C160062101610021416181617047DB
:103F000010B500240EE003220021012001F01FFB68
:103F1000064941F82400012001F008FB044941F85A
:103F20002400641C052CEED310BD0000C0960120B7
:103F3000D496012001461548814201D125207047C1
:103F40001348814201D12620F9E71248814201D16C
:103F50002720F4E71048814201D13420EFE70F48D1
:103F6000814201D13520EAE70D48814201D14A2042
:103F7000E5E70C48814201D14B20E0E70A48814245
:103F800001D15520DBE72520D9E70000001C0140C6
:103F9000000C004000100040002801400068004074
:103FA00000200140002401400014004000BFFEE753
:103FB00003B401984100009850EAC12018BF0420C2
:103FC0004A0D18BF40F0010040F2FF72B2EB515FA2
:103FD00008BF40F00200012808BF052002B070476A
:103FE00030380A2801D2012070470020704700EBCA
:103FF000401100E000BF0A1EA1F10101FAD1704793
:1040000010B5044603E04FF47A7000F005F8201E66
:10401000A4F10104F7D110BD10B5084B5968084B45
:104020001B68084CB3FBF4F303FB00F200BF034B27
:104030005B685B1A9342FAD310BD0000001000E0E9
:104040001000002040420F001CB54FF44070FEF7F6
:1040500033FBFEF71DF9FEF77FFAFFF751FFFFF77D
:10406000B7FBFFF731FBFFF72FFCFFF7A9FA074873
:10407000052100238022CDE9001005A1074801F0A9
:10408000C1FE01F0E7F800BFFEE7000000000020DD
:1040900053746172745F5461736B00006D34000877
:1040A0002DE9F04105460E461C4807681C4800688B
:1040B000001D00F0D3FD50B91948006890F82C108D
:1040C0000120884017490968814316480160681C2F
:1040D00038B936B112480168091D134800F020FEB6
:1040E0001AE07C190E4800684460BC4207D20C48B4
:1040F0000168091D0D48006800F0F8FD0CE0084853
:104100000168091D0A48006800F0F0FD09480068D0
:10411000844201D207480460BDE8F08128000020F5
:10412000140000202C000020880100201C0000202A
:10413000180000204400002010B5044600F0FCFDEB
:1041400024480068401C234908602348006840B99F
:10415000214804600846006801280DD100F0F2F9FA
:104160000AE01E48006838B91B480068C06AE16A66
:10417000884201D81848046019480068401C184952
:10418000086008460068206494F82C1001208840DC
:1041900014490968084313490860E16A01EB810189
:1041A000114A02EB8100211D00F0BAFD00F0EEFD86
:1041B0000A48006868B108480068C06AE16A884235
:1041C00007D24FF0805009490860BFF34F8FBFF30B
:1041D0006F8F10BD2400002014000020300000204C
:1041E000400000202C000020D400002004ED00E05E
:1041F00010B500F0A1FD10480068D0B90F4800F0DC
:1042000065FD0F4800F062FD0C480E4908600C483F
:104210000D49086000220C210A2001F098F9064996
:1042200008600846006820B108A10348006800F053
:104230006DFE00F0ABFD10BD5C0000209C01002075
:10424000B00100205400002058000020546D72512D
:104250000000000010B516E000F06EFD0C48C068CC
:10426000C468201D00F0FAFC0A480068401E094995
:10427000086009480068401E0749086000F086FD94
:10428000204600F05FF8044800680028E4D110BD23
:1042900074010020240000202000002070B5044696
:1042A0000D46206C70B1216CE0680144E160D4E9F6
:1042B0000210884201D32168E1602846226CE1683F
:1042C000FCF72DFB70BD2DE9F04104460F46154665
:1042D0004FF00008A66B206C48B9206800282CD14C
:1042E000A06801F079FE80460020A06025E07DB93D
:1042F0003946226C6068FCF712FB216C6068084448
:104300006060D4E90101884217D32068606014E03E
:104310003946226CE068FCF702FB216CE068411A28
:10432000E1602168E068884203D2216CA068411AEC
:10433000E160022D01D106B1761E701CA0634046DB
:10434000BDE8F08110B50446206B00F03DFD20462D
:1043500000F03AFD10BD01464A6A22B10A6B1268AC
:10436000C2F1050000E00020704700000146084A45
:10437000126812680AB9012200E000220A600A6885
:1043800022B9034A1268D268106800E00020704722
:104390005400002030B54FF4C033174800F0070434
:1043A0002CB1C01D20F00700134C041B1B1B024640
:1043B000124C22600024114D6C60D018083820F097
:1043C00007000F4C206000240D4D2D686C600C4DD3
:1043D0002D682C601146441A4C60094C24680C600E
:1043E000084D4C682C60084D4C682C604FF0004420
:1043F000064D2C6030BD0000C40100207400002078
:104400007C0000208400002080000020900000201C
:1044100000BFFFF71FFF07480068012807D94FF0CA
:10442000805005490860BFF34F8FBFF36F8F00F0D6
:1044300029FCEEE7D400002004ED00E010B50446AE
:1044400054B10020A06020600021E16000231A46E2
:104450001946204601F018F910BD2DE9F041064635
:104460000D4617469846069C0DB9246000E027606B
:10447000E66325640121204601F0BAF884F84C80F7
:10448000BDE8F0812DE9F05F82460E4690469B46DE
:104490000A9F0C9C4FEA8801A522206BFCF7B6FA14
:1044A000A8F10100216B01EB800929F0070909F04F
:1044B000070008B9012000E0002050B900BF5020DB
:1044C00080F31188BFF34F8FBFF36F8F00BF00BF22
:1044D000FEE786B1002507E0715D04F13400415527
:1044E000705D00B902E06D1C0A2DF5D300BF0021FC
:1044F0003D20015502E0002084F83400052F00D350
:104500000427E762A7640020E064201D00F0EBFBB5
:1045100004F1180000F0E7FB2461C7F10500A06179
:1045200064620020206584F854005A46514648468B
:1045300000F07EFB20600B9808B10B980460BDE88A
:10454000F09F000010B5002407E004EB84010F4A3F
:1045500002EB810000F0BAFB641C052CF5D30C487B
:1045600000F0B4FB0B4800F0B1FB0B4800F0AEFBD1
:104570000A4800F0ABFB0A4800F0A8FB04480949D0
:10458000086004480849086010BD0000D4000020FD
:10459000380100204C01002060010020740100203F
:1045A00088010020180000201C00002010B50146E2
:1045B000164800E0006803688B42FBD3024643685C
:1045C00013448B4204D143684C6823444360014642
:1045D0000A464B6813440468A34211D10C4C03688B
:1045E0002468A34208D04B680468646823444B6085
:1045F00003681B680B6005E0054B1B680B6001E05E
:1046000003680B60884200D0016010BD7400002078
:104610007C0000202DE9F04104460D4616461F4659
:104620004FF0000865602461B5420CD8F01BA16909
:10463000884202D34FF0010811E0211D09480068AB
:1046400000F054FB0BE0BE4204D2BD4202D34FF057
:10465000010804E0211D0448006800F047FB4046C3
:10466000BDE8F081580000205400002070B50546D8
:1046700000F062FBA86B08B9012400E0002400F000
:1046800085FB204670BD70B5054600F055FBA86B54
:10469000E96B884201D1012400E0002400F076FBA0
:1046A000204670BDF8B505460F461A480068C06838
:1046B000C468201D00F0D2FA94F8280000F004002D
:1046C000E8B1A06941192B463A462046FFF7A2FF00
:1046D000D8B1002003462A4601460090204601F04A
:1046E0002DFE064656B900BF502080F31188BFF357
:1046F0004F8FBFF36F8F00BF00BFFEE705E094F858
:10470000280020F0010084F828002046216A88470C
:10471000F8BD00005400002070B586B08BE003980F
:104720000028FBDB059C606908B9012000E000203F
:1047300010B9201D00F092FA02A800F0DBF805463F
:1047400003980A2875D2DFE800F0090507394163AC
:1047500006083A4200BF00BF00BF00BF94F828001F
:1047600040F0010084F828000498A26981180346EB
:104770002A462046FFF74EFFF8B12046216A8847B7
:1047800094F8280000F00400B8B1002000900498CC
:10479000A169421800231946204601F0CFFD0646C4
:1047A00056B900BF502080F31188BFF34F8FBFF37D
:1047B0006F8F00BF00BFFEE700BF3BE000BF94F873
:1047C000280020F0010084F8280033E000BF94F8AE
:1047D000280040F0010084F828000498A061A06936
:1047E00008B1012000E0002050B900BF502080F344
:1047F0001188BFF34F8FBFF36F8F00BF00BFFEE77D
:10480000A06941192B462A462046FFF703FF11E015
:1048100094F8280000F0020018B9204600F0D4FAFD
:1048200005E094F8280020F0010084F8280001E059
:10483000FFE700BF00BF002203A90448006801F0A1
:1048400009F900287FF46BAF06B070BD5C00002052
:10485000F8B505460C4600F04BFD684600F04AF8F6
:104860000646009820BB44B9B54206D801F0BAFC10
:1048700031462846FFF716FF1CE03CB10E480068A1
:10488000006808B9012000E000200446A91B224668
:104890000A48006800F050FB01F0A4FC50B94FF04A
:1048A000805007490860BFF34F8FBFF36F8F01E05F
:1048B00001F098FCF8BD0000580000205C000020CA
:1048C00004ED00E009480068006808B9012000E034
:1048D000002020B14FF0FF300549086005E0034893
:1048E0000068C0680068024908607047180000202E
:1048F0004400002070B5044601F0C4FA054607489C
:104900000068854204D200F00BF80120206001E02D
:104910000020206001480560284670BD640000202A
:104920002DE9F84334E025480068C068056823484D
:104930000068C068C468201D00F090F92046216A14
:10494000884794F8280000F0040008B3A0694619CD
:10495000AE4207D966602461211D1848006800F046
:10496000C5F915E0002003462A460146009020467E
:1049700001F0E4FC074657B900BF502080F31188CE
:10498000BFF34F8FBFF36F8F00BF00BFFEE700BFC5
:104990000A480068006808B9012000E000200028EB
:1049A000C1D00648D0F80080054800680349086077
:1049B0000348C0F80080BDE8F883000054000020E0
:1049C000580000200E480068401C08B9012000E093
:1049D000002050B900BF502080F31188BFF34F8FE3
:1049E000BFF36F8F00BF00BFFEE700BF502080F312
:1049F0001188BFF34F8FBFF36F8F00BF00BFFEE77B
:104A00006800002008B500BF6846FFF7AFFC044609
:104A100020460099FFF71CFFFFF77EFEF4E770B514
:104A2000044600F089F994F9455010E0606A08B92D
:104A3000012000E0002038B904F1240001F086FBD9
:104A400018B100F053FB00E003E0681E45B2002DF2
:104A5000ECDC00BFFF2084F8450000F097F900F07F
:104A60006BF994F9445010E0206908B9012000E086
:104A7000002048B904F1100001F068FB08B100F013
:104A800035FB681E45B200E001E0002DECDC00BF04
:104A9000FF2084F8440000F079F970BD2DE9F04161
:104AA00004464FF0000800F023FC5348006808B9A2
:104AB000FFF770FC51480068204000287ED13CB3CD
:104AC00004F10800A04223D9083404F0070000B321
:104AD00004F00700C0F108002044A04216D904F0F9
:104AE0000700C0F10800044404F0070008B90120E1
:104AF00000E0002068B900BF502080F31188BFF3A8
:104B00004F8FBFF36F8F00BF00BFFEE7002400E0B0
:104B10000024002C54D03A480068844250D8394EC2
:104B20003046056801E02E462D686868A04202D232
:104B300028680028F7D130480068854240D03068A6
:104B400000F10808286830606868001B102819D92F
:104B50002F1907F0070008B9012000E0002050B924
:104B600000BF502080F31188BFF34F8FBFF36F8FCA
:104B700000BF00BFFEE76868001B78606C603846C5
:104B8000FFF714FD1E4968680968081A1C49086087
:104B9000084600681C490968884203D21848006822
:104BA0001949086015496868096808436860002069
:104BB000286016480068401C144900E000E00860C6
:104BC00001F010FBB8F1000F01D100F05DF808F022
:104BD000070008B9012000E0002050B900BF5020B4
:104BE00080F31188BFF34F8FBFF36F8F00BF00BFFB
:104BF000FEE74046BDE8F0817C00002090000020E8
:104C00008000002074000020840000208800002024
:104C10000648006830B10549096801F14C00C96CCB
:104C2000491C016001480068704700001400002022
:104C3000001F4FF080730360001F21F00103036029
:104C4000001F054B036014380260001F6FF0020361
:104C50000360203870470000C549000801460A6912
:104C6000D1E901309860D1E9010358605068884269
:104C700001D188685060002008611068401E1060F3
:104C80001068704700BFFEE703E002A10548FFF788
:104C90008FF8FAE74D616C6C6F63204661696C6553
:104CA000640D0A000028014003E002A10648FFF756
:104CB0007FF8FAE7537461636B204F766572666C18
:104CC0006F770D0A000000000028014000F1080184
:104CD00041604FF0FF31816000F10801C160016166
:104CE00000210160704700210161704710B5024644
:104CF0000B685C1C0CB9106907E002F1080000E0C9
:104D00004068446824689C42FAD944684C604C6806
:104D1000A160886041600A611468641C146010BD61
:104D200042684A6093688B6093685960916008613B
:104D300003685B1C0360704700BF502080F311883C
:104D4000BFF34F8FBFF36F8F00BF0E480068401C4A
:104D50000C49086008460068012812D10A4800681A
:104D6000C0B208B9012000E0002050B900BF5020B7
:104D700080F31188BFF34F8FBFF36F8F00BF00BF69
:104D8000FEE770476800002004ED00E00D48006871
:104D900050B900BF502080F31188BFF34F8FBFF38D
:104DA0006F8F00BF00BFFEE706480068401E054940
:104DB00008600846006820B9002080F3118800BF11
:104DC00000BF70476800002070B506463546002ECB
:104DD00044D0083D2C46224960680968084008B163
:104DE000012000E0002050B900BF502080F311885E
:104DF000BFF34F8FBFF36F8F00BF00BFFEE7206888
:104E000008B9012000E0002050B900BF502080F315
:104E10001188BFF34F8FBFF36F8F00BF00BFFEE756
:104E20000F49606809680840C0B12068B0B90C49F2
:104E3000606809688843606000F05AFA0949606850
:104E400009680844074908602046FFF7AFFB064899
:104E50000068401C0449086001F0C4F970BD0000FE
:104E600090000020800000208C00002000204FF0E7
:104E7000E02108618861064800684FF47A71B0FB50
:104E8000F1F0401E4FF0E0214861072008617047B3
:104E90001000002070B5FBF7C1FA0446102C16D3A1
:104EA00004F1E02090F8F05315480078854201DBCA
:104EB000012000E0002050B900BF502080F311888D
:104EC000BFF34F8FBFF36F8F00BF00BFFEE70D48EA
:104ED000006800F4E0600C490968884201D80120AC
:104EE00000E0002050B900BF502080F31188BFF3CC
:104EF0004F8FBFF36F8F00BF00BFFEE770BD000094
:104F00006C0000200CED00E0700000200246002044
:104F10000BE0084B53F8303033B9064B43F83010F0
:104F200003EBC0035A6002E0401C0828F1D300BF25
:104F300070470000940000202DE9F04105460E4620
:104F400017462C46FFF7F8FE94F94400401C10B9B0
:104F5000002084F8440094F94500401C10B900205A
:104F600084F84500FFF712FFA06B28B93A46314696
:104F700004F1240000F0DCF82046FFF750FDBDE806
:104F8000F081000070B504460025D4B112480068D5
:104F900008B9012000E0002050B900BF502080F384
:104FA0001188BFF34F8FBFF36F8F00BF00BFFEE7C5
:104FB00000F09EF900212046FFF772F801F012F987
:104FC00005463DB94FF0805004490860BFF34F8F4C
:104FD000BFF36F8F70BD00005000002004ED00E0B3
:104FE00070B50546FFF7A8FE15B93048006800E027
:104FF00028460446201DFFF731FE78B9E06A00EB31
:1050000080002B4951F8200040B994F82C10012061
:10501000884028490968814326480160A06A18B180
:1050200004F11800FFF71AFE23480068401C2249CB
:1050300008601E480068844209D1211D1F48FFF7FF
:105040006FFE1F480068401C1D49086009E01D48AC
:105050000068401E1B4908602046FFF773F9FFF700
:1050600031FCFFF793FE18480068E8B10F4800686C
:10507000844219D11548006808B9012000E00020D9
:1050800050B900BF502080F31188BFF34F8FBFF39A
:105090006F8F00BF00BFFEE74FF080500C490860E3
:1050A000BFF34F8FBFF36F8F70BD0000140000205F
:1050B000D40000202C0000204000002074010020BB
:1050C000200000202400002030000020500000209C
:1050D00004ED00E003490968016003490968416083
:1050E000704700003C0000202800002001200149FA
:1050F000086070473800002070B504460D4654B96A
:1051000000BF502080F31188BFF34F8FBFF36F8F24
:1051100000BF00BFFEE70548016818312046FFF7D1
:10512000E5FD01212846FEF7BBFF70BD14000020FD
:1051300070B505460E46144655B900BF502080F3A1
:105140001188BFF34F8FBFF36F8F00BF00BFFEE723
:105150000648016818312846FFF7E2FD0CB14FF010
:10516000FF3621463046FEF79BFF70BD140000203D
:105170002DE9F04706460F4634464FF00109002E50
:1051800060D0E06C50B900BF502080F31188BFF3AD
:105190004F8FBFF36F8F00BF00BFFEE7A06CB84218
:1051A00001D23D4600E0A56CE06AA8424AD0E06C1E
:1051B000012847D124480068844201D0012000E042
:1051C000002050B900BF502080F31188BFF34F8FEB
:1051D000BFF36F8F00BF00BFFEE7D4F82C80E562FD
:1051E000A06900F0004010B9C5F10500A06108EB0E
:1051F0008801164A02EB81016069884201D10120D1
:1052000000E00020F0B1201DFFF728FD40B994F820
:105210002C10012088400E49096881430C48016028
:1052200094F82C100120884009490968084308496E
:105230000860E16A01EB8101044A02EB8100211D53
:10524000FFF76EFDBDE8F08714000020D4000020B9
:105250002C0000201CB51E4800210B468022CDE901
:1052600000101CA11D4800F0CDFD0446012C02D108
:1052700001F03AF80446012C15D100BF502080F30C
:105280001188BFF34F8FBFF36F8F00BF4FF0FF3018
:105290001349086001201349086000201249086082
:1052A00000F090F810E0601C08B1012000E0002040
:1052B00050B900BF502080F31188BFF34F8FBFF368
:1052C0006F8F00BF00BFFEE7084800681CBD0000EC
:1052D0004800002049444C450000000011440008EB
:1052E0004400002030000020280000204C00002056
:1052F00002480068401C01490860704750000020C7
:1053000070B52B48006818B101202A4908604DE0AB
:1053100000202849086028480068046B4FF0A53534
:105320002068B0F1A53F0BD16068B0F1A53F07D16F
:10533000A068B0F1A53F03D1E068B0F1A53F05D06A
:105340001D48016834310068FFF7AEFC1B48006857
:10535000B0FA80F0C0F11F0101EB8100184A52F849
:10536000200008B1012000E0002050B900BF50200B
:1053700080F31188BFF34F8FBFF36F8F00BF00BF63
:10538000FEE701EB81020E4B03EB8200426852689C
:10539000426000F108024368934202D142685268B9
:1053A00042604268D268044B1A6000BF70BD0000C2
:1053B0005000002038000020140000202C000020A5
:1053C000D40000201CB5524800685249884201D0E0
:1053D000012000E0002050B900BF502080F3118868
:1053E000BFF34F8FBFF36F8F00BF00BFFEE748488A
:1053F00000684849491E884201D0012000E0002091
:1054000050B900BF502080F31188BFF34F8FBFF316
:105410006F8F00BF00BFFEE73F490846007801904C
:10542000FF200A4610700846007800909DF80000A2
:1054300000F0F0009DF80020904201D1012000E032
:10544000002050B900BF502080F31188BFF34F8F68
:10545000BFF36F8F00BF00BFFEE79DF8000000F0B4
:1054600050002E4A107007202D4A106009E02C4889
:105470000068401E2A4A10609DF800004006000E99
:1054800000909DF8000000F080008028EFD02448B4
:105490000068C0F10700042801D1012000E00020CD
:1054A00050B900BF502080F31188BFF34F8FBFF376
:1054B0006F8F00BF00BFFEE7194800680002184A5E
:1054C00010601046008800F4E0601060124A0198F5
:1054D00010700F482030006840F470000C492031F3
:1054E00008600846006840F070400860FFF7BEFCA6
:1054F00000200C490860FAF759FF0B48006840F09B
:10550000404009490860FAF73DFF00201CBD00003B
:1055100000ED00E071C20F4100E400E06C000020EB
:10552000700000206800002034EF00E02DE9F04119
:1055300004460126002722460021012000F007F83A
:1055400005462846FEF77AFF2846BDE8F0812DE99A
:10555000F84306460F4690460EB1012000E00020B9
:1055600050B900BF502080F31188BFF34F8FBFF3B5
:105570006F8F00BF00BFFEE706FB07F51FB1B5FB4D
:10558000F7F0B04201D1012000E0002050B900BF87
:10559000502080F31188BFF34F8FBFF36F8F00BF90
:1055A00000BFFEE705F15000A84201D9012000E04C
:1055B000002050B900BF502080F31188BFF34F8FF7
:1055C000BFF36F8F00BF00BFFEE705F15000FFF78C
:1055D00065FA04464CB1A14609F1500943464A46D2
:1055E000394630460094FEF738FF2046BDE8F88380
:1055F00070B505460E462C4654B900BF502080F3C6
:105600001188BFF34F8FBFF36F8F00BF00BFFEE75E
:10561000FFF792FBD4E90F12206801FB0200A060A3
:105620000020A06320686060E06B401E226C21684F
:1056300000FB0211E160FF2084F8440084F845007B
:105640009EB9206908B9012000E00020A8B904F142
:10565000100000F07BFD80B14FF0805009490860D8
:10566000BFF34F8FBFF36F8F07E004F11000FFF718
:105670002DFB04F12400FFF729FBFFF787FB012036
:1056800070BD000004ED00E02DE9FF4383B0064645
:1056900088461D464FF00009344654B900BF5020DB
:1056A00080F31188BFF34F8FBFF36F8F00BF00BF30
:1056B000FEE7B8F1000F01D1206C08B9012000E02D
:1056C000002050B900BF502080F31188BFF34F8FE6
:1056D000BFF36F8F00BF00BFFEE7022D02D1E06B6A
:1056E000012801D1012000E0002050B900BF502066
:1056F00080F31188BFF34F8FBFF36F8F00BF00BFE0
:10570000FEE700F0AFFB08B9059808B9012000E0FA
:10571000002050B900BF502080F31188BFF34F8F95
:10572000BFF36F8F00BF00BFFEE700BFFFF704FBB2
:10573000A06BE16B884201D3022D28D12A46414655
:105740002046FEF7C0FD0746606A08B9012000E068
:10575000002068B904F1240000F0F8FC88B14FF093
:10576000805032490860BFF34F8FBFF36F8F08E05E
:105770003FB14FF080502D490860BFF34F8FBFF30A
:105780006F8FFFF703FB012007B0BDE8F08305989A
:1057900018B9FFF7FBFA0020F6E7B9F1000F04D1C2
:1057A00001A8FFF797FC4FF00109FFF7EFFAFFF7A9
:1057B0009FFDFFF7C1FA94F94400401C10B9002086
:1057C00084F8440094F94500401C10B9002084F886
:1057D0004500FFF7DBFA05A901A800F0CBFAF0B904
:1057E0002046FEF750FFA0B104F110000599FFF725
:1057F00083FC2046FFF713F900F0F4FC002895D154
:105800004FF0805009490860BFF34F8FBFF36F8F8F
:105810008CE72046FFF703F900F0E4FC86E720461A
:10582000FFF7FDF800F0DEFC0020ADE704ED00E03E
:105830002DE9F84F07468B4690461E463C4654B924
:1058400000BF502080F31188BFF34F8FBFF36F8FDD
:1058500000BF00BFFEE7BBF1000F01D1206C08B90B
:10586000012000E0002050B900BF502080F31188D3
:10587000BFF34F8FBFF36F8F00BF00BFFEE7022E55
:1058800002D1E06B012801D1012000E0002050B9D5
:1058900000BF502080F31188BFF34F8FBFF36F8F8D
:1058A00000BF00BFFEE7FFF7F5FA00BF5021EFF39E
:1058B000118081F31188BFF34F8FBFF36F8F00BF4B
:1058C0000546A06BE16B884201D3022E37D194F9D3
:1058D00045A0A06B0090324659462046FEF7F3FCE7
:1058E0000AF1010088B9606A08B9012000E00020CF
:1058F00050B904F1240000F029FC28B1B8F1000FE0
:1059000002D00120C8F8000016E0BAF17F0F01D0E4
:10591000012000E0002050B900BF502080F3118822
:10592000BFF34F8FBFF36F8F00BF00BFFEE70AF1D9
:10593000010040B284F845004FF0010901E04FF04A
:10594000000900BF85F3118800BF4846BDE8F88F05
:105950002DE9F04706460F46344654B900BF5020A3
:1059600080F31188BFF34F8FBFF36F8F00BF00BF6D
:10597000FEE7206C08B9012000E0002050B900BF0C
:10598000502080F31188BFF34F8FBFF36F8F00BF9C
:1059900000BFFEE7206808B9A06808B9012000E050
:1059A000002050B900BF502080F31188BFF34F8F03
:1059B000BFF36F8F00BF00BFFEE7FFF76BFA00BFBA
:1059C0005021EFF3118081F31188BFF34F8FBFF3A4
:1059D0006F8F00BF0546D4F838A0E06B504530D932
:1059E00094F945900AF10100A06309F1010070B932
:1059F000606A08B9012000E00020F8B904F1240031
:105A000000F0A4FBD0B1CFB10120386016E0B9F1AD
:105A10007F0F01D0012000E0002050B900BF5020CE
:105A200080F31188BFF34F8FBFF36F8F00BF00BFAC
:105A3000FEE709F1010040B284F845004FF001088B
:105A400001E04FF0000800BF85F3118800BF404619
:105A5000BDE8F0872DE9F74183B005460E464FF0CB
:105A600000082C4654B900BF502080F31188BFF3C2
:105A70004F8FBFF36F8F00BF00BFFEE70EB9206CE2
:105A800008B9012000E0002050B900BF502080F389
:105A90001188BFF34F8FBFF36F8F00BF00BFFEE7CA
:105AA00000F0E0F908B9059808B9012000E00020ED
:105AB00050B900BF502080F31188BFF34F8FBFF360
:105AC0006F8F00BF00BFFEE700BFFFF735F9A76B80
:105AD000F7B131462046FEF7E1FB781EA06320694E
